{
  "contractName": "Issue",
  "abi": [
    {
      "inputs": [
        {
          "internalType": "contract Params",
          "name": "_params",
          "type": "address"
        }
      ],
      "stateMutability": "nonpayable",
      "type": "constructor"
    },
    {
      "anonymous": false,
      "inputs": [
        {
          "indexed": true,
          "internalType": "uint256",
          "name": "id",
          "type": "uint256"
        },
        {
          "indexed": true,
          "internalType": "address",
          "name": "receiver",
          "type": "address"
        },
        {
          "indexed": false,
          "internalType": "address",
          "name": "issuer_address",
          "type": "address"
        },
        {
          "indexed": false,
          "internalType": "uint256[2]",
          "name": "h",
          "type": "uint256[2]"
        },
        {
          "indexed": false,
          "internalType": "uint256[2]",
          "name": "t",
          "type": "uint256[2]"
        }
      ],
      "name": "emitIssue",
      "type": "event"
    },
    {
      "inputs": [
        {
          "internalType": "address",
          "name": "addr",
          "type": "address"
        }
      ],
      "name": "set_params",
      "outputs": [],
      "stateMutability": "nonpayable",
      "type": "function"
    },
    {
      "inputs": [
        {
          "internalType": "address",
          "name": "issuer_address",
          "type": "address"
        }
      ],
      "name": "addIssuer",
      "outputs": [],
      "stateMutability": "nonpayable",
      "type": "function"
    },
    {
      "inputs": [
        {
          "internalType": "address",
          "name": "issuer_address",
          "type": "address"
        }
      ],
      "name": "removeIssuer",
      "outputs": [],
      "stateMutability": "nonpayable",
      "type": "function"
    },
    {
      "inputs": [
        {
          "internalType": "string",
          "name": "name",
          "type": "string"
        },
        {
          "internalType": "address",
          "name": "receiver",
          "type": "address"
        },
        {
          "internalType": "uint256[2]",
          "name": "h",
          "type": "uint256[2]"
        },
        {
          "internalType": "uint256[2]",
          "name": "t",
          "type": "uint256[2]"
        }
      ],
      "name": "SendBlindSign",
      "outputs": [],
      "stateMutability": "nonpayable",
      "type": "function"
    }
  ],
  "bytecode": "0x608060405234801561001057600080fd5b506040516105c83803806105c883398101604081905261002f91610062565b60018054336001600160a01b031991821617909155600080549091166001600160a01b0392909216919091179055610092565b60006020828403121561007457600080fd5b81516001600160a01b038116811461008b57600080fd5b9392505050565b610527806100a16000396000f3fe608060405234801561001057600080fd5b506004361061004c5760003560e01c806317a2a3601461005157806320694db01461006657806347bc70931461007957806385b7937a1461008c575b600080fd5b61006461005f36600461033d565b61009f565b005b610064610074366004610406565b6101be565b610064610087366004610406565b6101f9565b61006461009a366004610406565b610231565b3360009081526002602052604090205460ff166100bb57600080fd5b6000805460405163144323a760e31b81526001600160a01b039091169063a2191d38906100ec908890600401610428565b602060405180830381865afa158015610109573d6000803e3d6000fd5b505050506040513d601f19601f8201168201806040525081019061012d919061047d565b9050806000036101715760405162461bcd60e51b815260206004820152600b60248201526a27379039bab1b41020a19760a91b604482015260640160405180910390fd5b836001600160a01b0316817f3248b557172e8f9516adcd985a3b501b10b2d0567abb77d1a5daf39e2496f4823386866040516101af939291906104bf565b60405180910390a35050505050565b6001546001600160a01b031633146101d557600080fd5b6001600160a01b03166000908152600260205260409020805460ff19166001179055565b6001546001600160a01b0316331461021057600080fd5b6001600160a01b03166000908152600260205260409020805460ff19169055565b6001546001600160a01b0316331461024857600080fd5b600080546001600160a01b0319166001600160a01b0392909216919091179055565b634e487b7160e01b600052604160045260246000fd5b604051601f8201601f1916810167ffffffffffffffff811182821017156102a9576102a961026a565b604052919050565b80356001600160a01b03811681146102c857600080fd5b919050565b600082601f8301126102de57600080fd5b6040516040810181811067ffffffffffffffff821117156103015761030161026a565b806040525080604084018581111561031857600080fd5b845b8181101561033257803583526020928301920161031a565b509195945050505050565b60008060008060c0858703121561035357600080fd5b843567ffffffffffffffff8082111561036b57600080fd5b818701915087601f83011261037f57600080fd5b81356020828211156103935761039361026a565b6103a5601f8301601f19168201610280565b925081835289818386010111156103bb57600080fd5b818185018285013760008183850101528297506103d9818a016102b1565b9650505050506103ec86604087016102cd565b91506103fb86608087016102cd565b905092959194509250565b60006020828403121561041857600080fd5b610421826102b1565b9392505050565b600060208083528351808285015260005b8181101561045557858101830151858201604001528201610439565b81811115610467576000604083870101525b50601f01601f1916929092016040019392505050565b60006020828403121561048f57600080fd5b5051919050565b8060005b60028110156104b957815184526020938401939091019060010161049a565b50505050565b6001600160a01b038416815260a081016104dc6020830185610496565b6104e96060830184610496565b94935050505056fea2646970667358221220f925f59f6b0a22cb35bdf4ee2528707ce4c30b466dba8d96cff64c2673a1f1e364736f6c634300080d0033",
  "immutableReferences": {},
  "source": "// SPDX-License-Identifier: GPL-3.0\npragma solidity >=0.7.0 <0.9.0;\npragma experimental ABIEncoderV2;\n\nimport {Params} from \"./Params.sol\";\n\ncontract Issue {\n\n    Params private params;\n    address private owner;\n    constructor(Params _params) {\n        owner = msg.sender;\n        params = _params;\n    }\n    \n    modifier onlyOwner {\n        require(msg.sender == owner);\n        _;\n    }\n\n    function set_params(address addr) public onlyOwner {\n        params = Params(addr);\n    }\n\n    mapping(address => bool) private issuers;\n    function addIssuer(address issuer_address) public onlyOwner {\n        issuers[issuer_address] = true;\n    }\n    function removeIssuer(address issuer_address) public onlyOwner {\n        issuers[issuer_address] = false;\n    }\n    modifier onlyIssuers {\n        require(issuers[msg.sender]);\n        _;\n    }\n\n    event emitIssue(uint256 indexed id, address indexed receiver, address issuer_address, uint256[2] h, uint256[2] t);\n\n    function SendBlindSign(string memory name, address receiver, uint256[2] memory h, uint256[2] memory t) public onlyIssuers {\n        uint256 id = params.getMapCredentials(name);\n        require(id != 0, \"No such AC.\");\n        emit emitIssue(id, receiver, msg.sender, h, t);\n    }\n}",
  "sourcePath": "/home/thinh/Documents/workspace/dtrac1/contracts/Issue.sol",
  "compiler": {
    "name": "solc",
    "version": "0.8.13+commit.abaa5c0e.Emscripten.clang"
  },
  "schemaVersion": "3.4.16",
  "updatedAt": "2025-06-24T09:10:47.103Z",
  "networkType": "ethereum",
  "devdoc": {
    "kind": "dev",
    "methods": {},
    "version": 1
  },
  "userdoc": {
    "kind": "user",
    "methods": {},
    "version": 1
  }
}