{
  "contractName": "Opening",
  "abi": [
    {
      "inputs": [
        {
          "internalType": "contract Params",
          "name": "_params",
          "type": "address"
        }
      ],
      "stateMutability": "nonpayable",
      "type": "constructor"
    },
    {
      "anonymous": false,
      "inputs": [
        {
          "indexed": true,
          "internalType": "uint256",
          "name": "id",
          "type": "uint256"
        },
        {
          "indexed": false,
          "internalType": "uint256",
          "name": "opening_session_id",
          "type": "uint256"
        },
        {
          "indexed": false,
          "internalType": "address",
          "name": "opener_address",
          "type": "address"
        },
        {
          "indexed": false,
          "internalType": "uint256[13][]",
          "name": "openingshares",
          "type": "uint256[13][]"
        }
      ],
      "name": "emitOpening",
      "type": "event"
    },
    {
      "inputs": [
        {
          "internalType": "address",
          "name": "addr",
          "type": "address"
        }
      ],
      "name": "set_params",
      "outputs": [],
      "stateMutability": "nonpayable",
      "type": "function"
    },
    {
      "inputs": [
        {
          "internalType": "address",
          "name": "opener_address",
          "type": "address"
        }
      ],
      "name": "addOpener",
      "outputs": [],
      "stateMutability": "nonpayable",
      "type": "function"
    },
    {
      "inputs": [
        {
          "internalType": "address",
          "name": "opener_address",
          "type": "address"
        }
      ],
      "name": "removeOpener",
      "outputs": [],
      "stateMutability": "nonpayable",
      "type": "function"
    },
    {
      "inputs": [
        {
          "internalType": "string",
          "name": "name",
          "type": "string"
        },
        {
          "internalType": "uint256",
          "name": "opening_session_id",
          "type": "uint256"
        },
        {
          "internalType": "uint256[13][]",
          "name": "openingshares",
          "type": "uint256[13][]"
        }
      ],
      "name": "SendOpeningInfo",
      "outputs": [],
      "stateMutability": "nonpayable",
      "type": "function"
    }
  ],
  "bytecode": "0x608060405234801561001057600080fd5b5060405161065438038061065483398101604081905261002f91610062565b60018054336001600160a01b031991821617909155600080549091166001600160a01b0392909216919091179055610092565b60006020828403121561007457600080fd5b81516001600160a01b038116811461008b57600080fd5b9392505050565b6105b3806100a16000396000f3fe608060405234801561001057600080fd5b506004361061004c5760003560e01c8063705b9454146100515780637d226b351461006657806385b7937a14610079578063b36516cf1461008c575b600080fd5b61006461005f366004610398565b61009f565b005b610064610074366004610459565b6101b3565b610064610087366004610459565b6101eb565b61006461009a366004610459565b610224565b3360009081526002602052604090205460ff166100bb57600080fd5b6000805460405163144323a760e31b81526001600160a01b039091169063a2191d38906100ec908790600401610489565b602060405180830381865afa158015610109573d6000803e3d6000fd5b505050506040513d601f19601f8201168201806040525081019061012d91906104de565b9050806000036101715760405162461bcd60e51b815260206004820152600b60248201526a27379039bab1b41020a19760a91b604482015260640160405180910390fd5b807f7ce550f8928939fc23557cf255aa5c4ac2c3f3c6ac39f96c9bd7084c3b2d3d778433856040516101a5939291906104f7565b60405180910390a250505050565b6001546001600160a01b031633146101ca57600080fd5b6001600160a01b03166000908152600260205260409020805460ff19169055565b6001546001600160a01b0316331461020257600080fd5b600080546001600160a01b0319166001600160a01b0392909216919091179055565b6001546001600160a01b0316331461023b57600080fd5b6001600160a01b03166000908152600260205260409020805460ff19166001179055565b634e487b7160e01b600052604160045260246000fd5b6040516101a0810167ffffffffffffffff811182821017156102995761029961025f565b60405290565b604051601f8201601f1916810167ffffffffffffffff811182821017156102c8576102c861025f565b604052919050565b6000601f83818401126102e257600080fd5b8235602067ffffffffffffffff8211156102fe576102fe61025f565b61030c818360051b0161029f565b8281526101a0928302860182019282820191908885111561032c57600080fd5b8388015b8581101561038a5789878201126103475760008081fd5b61034f610275565b808383018c8111156103615760008081fd5b835b8181101561037a5780358452928801928801610363565b5050855250928401928101610330565b509098975050505050505050565b6000806000606084860312156103ad57600080fd5b833567ffffffffffffffff808211156103c557600080fd5b818601915086601f8301126103d957600080fd5b81356020828211156103ed576103ed61025f565b6103ff601f8301601f1916820161029f565b828152898284870101111561041357600080fd5b828286018383013760009281018201929092529095508601359350604086013591508082111561044257600080fd5b5061044f868287016102d0565b9150509250925092565b60006020828403121561046b57600080fd5b81356001600160a01b038116811461048257600080fd5b9392505050565b600060208083528351808285015260005b818110156104b65785810183015185820160400152820161049a565b818111156104c8576000604083870101525b50601f01601f1916929092016040019392505050565b6000602082840312156104f057600080fd5b5051919050565b8381526001600160a01b038316602080830191909152606060408301819052835190830181905260009184810191608085019084805b8281101561056e57855184835b600d8110156105575782518252918701919087019060010161053a565b505050948401946101a0939093019260010161052d565b5091999850505050505050505056fea26469706673582212202874718065e2329ed66defbb64ed1ce084afb886ee3383301cc95b4babe886bf64736f6c634300080d0033",
  "immutableReferences": {},
  "source": "// SPDX-License-Identifier: GPL-3.0\npragma solidity >=0.7.0 <0.9.0;\npragma experimental ABIEncoderV2;\n\nimport {Params} from \"./Params.sol\";\n\ncontract Opening {\n\n    Params private params;\n    address private owner;\n    constructor(Params _params) {\n        owner = msg.sender;\n        params = _params;\n    }\n\n    modifier onlyOwner {\n        require(msg.sender == owner);\n        _;\n    }\n    function set_params(address addr) public onlyOwner {\n        params = Params(addr);\n    }\n\n    mapping(address => bool) private openers;\n    function addOpener(address opener_address) public onlyOwner {\n        openers[opener_address] = true;\n    }\n    function removeOpener(address opener_address) public onlyOwner {\n        openers[opener_address] = false;\n    }\n    modifier onlyOpeners {\n        require(openers[msg.sender]);\n        _;\n    }\n    \n    event emitOpening(uint256 indexed id, uint256 opening_session_id, address opener_address, uint256[13][] openingshares);\n    function SendOpeningInfo(string memory name, uint256 opening_session_id,  uint256[13][] memory openingshares) public onlyOpeners {\n        uint256 id = params.getMapCredentials(name);\n        require(id != 0, \"No such AC.\");\n        emit emitOpening(id, opening_session_id, msg.sender, openingshares);\n    }\n}",
  "sourcePath": "/home/thinh/Documents/workspace/dtrac1/contracts/Opening.sol",
  "compiler": {
    "name": "solc",
    "version": "0.8.13+commit.abaa5c0e.Emscripten.clang"
  },
  "schemaVersion": "3.4.16",
  "updatedAt": "2025-06-24T09:10:47.100Z",
  "networkType": "ethereum",
  "devdoc": {
    "kind": "dev",
    "methods": {},
    "version": 1
  },
  "userdoc": {
    "kind": "user",
    "methods": {},
    "version": 1
  }
}