{
  "contractName": "Params",
  "abi": [
    {
      "inputs": [],
      "stateMutability": "nonpayable",
      "type": "constructor"
    },
    {
      "inputs": [
        {
          "internalType": "string",
          "name": "name",
          "type": "string"
        }
      ],
      "name": "getMapCredentials",
      "outputs": [
        {
          "internalType": "uint256",
          "name": "",
          "type": "uint256"
        }
      ],
      "stateMutability": "view",
      "type": "function",
      "constant": true
    },
    {
      "inputs": [
        {
          "internalType": "string",
          "name": "name",
          "type": "string"
        }
      ],
      "name": "getMapTTPs",
      "outputs": [
        {
          "internalType": "uint256",
          "name": "",
          "type": "uint256"
        }
      ],
      "stateMutability": "view",
      "type": "function",
      "constant": true
    },
    {
      "inputs": [
        {
          "internalType": "string",
          "name": "_name",
          "type": "string"
        },
        {
          "components": [
            {
              "internalType": "uint256",
              "name": "X",
              "type": "uint256"
            },
            {
              "internalType": "uint256",
              "name": "Y",
              "type": "uint256"
            }
          ],
          "internalType": "struct G.G1Point[]",
          "name": "_hs",
          "type": "tuple[]"
        },
        {
          "components": [
            {
              "internalType": "uint256[2]",
              "name": "X",
              "type": "uint256[2]"
            },
            {
              "internalType": "uint256[2]",
              "name": "Y",
              "type": "uint256[2]"
            }
          ],
          "internalType": "struct G.G2Point",
          "name": "_alpha",
          "type": "tuple"
        },
        {
          "components": [
            {
              "internalType": "uint256",
              "name": "X",
              "type": "uint256"
            },
            {
              "internalType": "uint256",
              "name": "Y",
              "type": "uint256"
            }
          ],
          "internalType": "struct G.G1Point[]",
          "name": "_g1_beta",
          "type": "tuple[]"
        },
        {
          "components": [
            {
              "internalType": "uint256[2]",
              "name": "X",
              "type": "uint256[2]"
            },
            {
              "internalType": "uint256[2]",
              "name": "Y",
              "type": "uint256[2]"
            }
          ],
          "internalType": "struct G.G2Point[]",
          "name": "_beta",
          "type": "tuple[]"
        },
        {
          "components": [
            {
              "internalType": "uint256[2]",
              "name": "X",
              "type": "uint256[2]"
            },
            {
              "internalType": "uint256[2]",
              "name": "Y",
              "type": "uint256[2]"
            }
          ],
          "internalType": "struct G.G2Point[]",
          "name": "_opk",
          "type": "tuple[]"
        },
        {
          "internalType": "string[][]",
          "name": "_combinations",
          "type": "string[][]"
        },
        {
          "internalType": "string[]",
          "name": "_dependent_ttps",
          "type": "string[]"
        },
        {
          "internalType": "uint256[][]",
          "name": "_include_indexes",
          "type": "uint256[][]"
        },
        {
          "internalType": "uint256[]",
          "name": "_public_m_encoding",
          "type": "uint256[]"
        }
      ],
      "name": "set_params",
      "outputs": [],
      "stateMutability": "nonpayable",
      "type": "function"
    },
    {
      "inputs": [
        {
          "internalType": "string",
          "name": "_name",
          "type": "string"
        },
        {
          "components": [
            {
              "internalType": "uint256",
              "name": "X",
              "type": "uint256"
            },
            {
              "internalType": "uint256",
              "name": "Y",
              "type": "uint256"
            }
          ],
          "internalType": "struct G.G1Point",
          "name": "_ttp_pk",
          "type": "tuple"
        },
        {
          "components": [
            {
              "internalType": "uint256",
              "name": "X",
              "type": "uint256"
            },
            {
              "internalType": "uint256",
              "name": "Y",
              "type": "uint256"
            }
          ],
          "internalType": "struct G.G1Point[]",
          "name": "_hs",
          "type": "tuple[]"
        }
      ],
      "name": "set_ttp_params",
      "outputs": [],
      "stateMutability": "nonpayable",
      "type": "function"
    },
    {
      "inputs": [
        {
          "internalType": "string",
          "name": "_name",
          "type": "string"
        }
      ],
      "name": "get_hs",
      "outputs": [
        {
          "components": [
            {
              "internalType": "uint256",
              "name": "X",
              "type": "uint256"
            },
            {
              "internalType": "uint256",
              "name": "Y",
              "type": "uint256"
            }
          ],
          "internalType": "struct G.G1Point[]",
          "name": "",
          "type": "tuple[]"
        }
      ],
      "stateMutability": "view",
      "type": "function",
      "constant": true
    },
    {
      "inputs": [
        {
          "internalType": "string",
          "name": "_name",
          "type": "string"
        }
      ],
      "name": "get_public_m_encoding",
      "outputs": [
        {
          "internalType": "uint256[]",
          "name": "",
          "type": "uint256[]"
        }
      ],
      "stateMutability": "view",
      "type": "function",
      "constant": true
    },
    {
      "inputs": [
        {
          "internalType": "string",
          "name": "_name",
          "type": "string"
        }
      ],
      "name": "get_alpha",
      "outputs": [
        {
          "components": [
            {
              "internalType": "uint256[2]",
              "name": "X",
              "type": "uint256[2]"
            },
            {
              "internalType": "uint256[2]",
              "name": "Y",
              "type": "uint256[2]"
            }
          ],
          "internalType": "struct G.G2Point",
          "name": "",
          "type": "tuple"
        }
      ],
      "stateMutability": "view",
      "type": "function",
      "constant": true
    },
    {
      "inputs": [
        {
          "internalType": "string",
          "name": "_name",
          "type": "string"
        }
      ],
      "name": "get_beta",
      "outputs": [
        {
          "components": [
            {
              "internalType": "uint256[2]",
              "name": "X",
              "type": "uint256[2]"
            },
            {
              "internalType": "uint256[2]",
              "name": "Y",
              "type": "uint256[2]"
            }
          ],
          "internalType": "struct G.G2Point[]",
          "name": "",
          "type": "tuple[]"
        }
      ],
      "stateMutability": "view",
      "type": "function",
      "constant": true
    },
    {
      "inputs": [
        {
          "internalType": "string",
          "name": "_name",
          "type": "string"
        }
      ],
      "name": "get_g1_beta",
      "outputs": [
        {
          "components": [
            {
              "internalType": "uint256",
              "name": "X",
              "type": "uint256"
            },
            {
              "internalType": "uint256",
              "name": "Y",
              "type": "uint256"
            }
          ],
          "internalType": "struct G.G1Point[]",
          "name": "",
          "type": "tuple[]"
        }
      ],
      "stateMutability": "view",
      "type": "function",
      "constant": true
    },
    {
      "inputs": [
        {
          "internalType": "string",
          "name": "_name",
          "type": "string"
        }
      ],
      "name": "get_opk",
      "outputs": [
        {
          "components": [
            {
              "internalType": "uint256[2]",
              "name": "X",
              "type": "uint256[2]"
            },
            {
              "internalType": "uint256[2]",
              "name": "Y",
              "type": "uint256[2]"
            }
          ],
          "internalType": "struct G.G2Point[]",
          "name": "",
          "type": "tuple[]"
        }
      ],
      "stateMutability": "view",
      "type": "function",
      "constant": true
    },
    {
      "inputs": [
        {
          "internalType": "uint256",
          "name": "id",
          "type": "uint256"
        },
        {
          "internalType": "string[]",
          "name": "combination",
          "type": "string[]"
        }
      ],
      "name": "checkCombination",
      "outputs": [
        {
          "internalType": "bool",
          "name": "",
          "type": "bool"
        }
      ],
      "stateMutability": "view",
      "type": "function",
      "constant": true
    },
    {
      "inputs": [
        {
          "internalType": "string",
          "name": "_name",
          "type": "string"
        },
        {
          "internalType": "string[]",
          "name": "combination",
          "type": "string[]"
        }
      ],
      "name": "get_include_indexes",
      "outputs": [
        {
          "internalType": "uint256[][]",
          "name": "",
          "type": "uint256[][]"
        }
      ],
      "stateMutability": "view",
      "type": "function",
      "constant": true
    },
    {
      "inputs": [
        {
          "internalType": "string",
          "name": "_name",
          "type": "string"
        }
      ],
      "name": "get_ttp_combinations",
      "outputs": [
        {
          "internalType": "string[][]",
          "name": "",
          "type": "string[][]"
        }
      ],
      "stateMutability": "view",
      "type": "function",
      "constant": true
    },
    {
      "inputs": [
        {
          "internalType": "string",
          "name": "_name",
          "type": "string"
        }
      ],
      "name": "get_ttpKeys",
      "outputs": [
        {
          "components": [
            {
              "internalType": "uint256",
              "name": "X",
              "type": "uint256"
            },
            {
              "internalType": "uint256",
              "name": "Y",
              "type": "uint256"
            }
          ],
          "internalType": "struct G.G1Point",
          "name": "",
          "type": "tuple"
        }
      ],
      "stateMutability": "view",
      "type": "function",
      "constant": true
    },
    {
      "inputs": [
        {
          "internalType": "string",
          "name": "_name",
          "type": "string"
        }
      ],
      "name": "get_ttp_params",
      "outputs": [
        {
          "components": [
            {
              "internalType": "uint256",
              "name": "X",
              "type": "uint256"
            },
            {
              "internalType": "uint256",
              "name": "Y",
              "type": "uint256"
            }
          ],
          "internalType": "struct G.G1Point[]",
          "name": "",
          "type": "tuple[]"
        }
      ],
      "stateMutability": "view",
      "type": "function",
      "constant": true
    }
  ],
  "bytecode": "0x608060405260006001556000600b5534801561001a57600080fd5b50600080546001600160a01b031916331790556120ac8061003c6000396000f3fe608060405234801561001057600080fd5b50600436106100f55760003560e01c80638b4345d111610097578063a794c77f11610066578063a794c77f14610224578063d30f2bc314610244578063fcd3c13114610264578063fe79cc8c1461028457600080fd5b80638b4345d1146101cb57806394dee9cc146101de578063a2191d38146101fe578063a260743a1461021157600080fd5b80635e572474116100d35780635e572474146101635780636cba32c814610178578063730163bf146101985780637e1b39bf146101ab57600080fd5b8063437fe4df146100fa5780634b95cd31146101205780635894e36714610143575b600080fd5b61010d610108366004611674565b610297565b6040519081526020015b60405180910390f35b61013361012e366004611762565b6102bf565b6040519015158152602001610117565b610156610151366004611674565b6104c2565b60405161011791906117d8565b610176610171366004611b9d565b610622565b005b61018b610186366004611674565b610a11565b6040516101179190611d5c565b61018b6101a6366004611674565b610afd565b6101be6101b9366004611674565b610be9565b6040516101179190611d9e565b6101766101d9366004611db5565b610c75565b6101f16101ec366004611674565b610d8d565b6040516101179190611e29565b61010d61020c366004611674565b610e2b565b6101f161021f366004611674565b610e3d565b610237610232366004611674565b610ed8565b6040516101179190611ebb565b610257610252366004611674565b610f68565b6040516101179190611ed5565b610277610272366004611ee3565b611021565b6040516101179190611f3c565b6101f1610292366004611674565b61127e565b6000600c826040516102a99190611f9e565b9081526020016040518091039020549050919050565b6000828152600a6020908152604080832080548251818502810185019093528083528493849084015b828210156103db57838290600052602060002001805480602002602001604051908101604052809291908181526020016000905b828210156103c857838290600052602060002001805461033b90611fba565b80601f016020809104026020016040519081016040528092919081815260200182805461036790611fba565b80156103b45780601f10610389576101008083540402835291602001916103b4565b820191906000526020600020905b81548152906001019060200180831161039757829003601f168201915b50505050508152602001906001019061031c565b50505050815260200190600101906102e8565b50505050905060005b81518110156104b557835182828151811061040157610401611ff4565b602002602001015151036104a35760005b845181101561048d5784818151811061042d5761042d611ff4565b60200260200101518051906020012083838151811061044e5761044e611ff4565b6020026020010151828151811061046757610467611ff4565b6020026020010151805190602001200361048d578061048581612020565b915050610412565b845181036104a157600193505050506104bc565b505b806104ad81612020565b9150506103e4565b5060009150505b92915050565b606060006104cf83610e2b565b9050806000036104fa5760405162461bcd60e51b81526004016104f190612039565b60405180910390fd5b6000818152600a6020908152604080832080548251818502810185019093528083529193909284015b8282101561061657838290600052602060002001805480602002602001604051908101604052809291908181526020016000905b8282101561060357838290600052602060002001805461057690611fba565b80601f01602080910402602001604051908101604052809291908181526020018280546105a290611fba565b80156105ef5780601f106105c4576101008083540402835291602001916105ef565b820191906000526020600020905b8154815290600101906020018083116105d257829003601f168201915b505050505081526020019060010190610557565b5050505081526020019060010190610523565b50505050915050919050565b6000546001600160a01b0316331461063957600080fd5b6106428a610e2b565b1561068f5760405162461bcd60e51b815260206004820152601760248201527f4143206e616d6520616c7265616479206578697374732e00000000000000000060448201526064016104f1565b6106988a611337565b60006106a38b610e2b565b905060005b8a518110156107145760008281526006602052604090208b518c90839081106106d3576106d3611ff4565b60209081029190910181015182546001818101855560009485529383902082516002909202019081559101519101558061070c81612020565b9150506106a8565b5060008181526007602090815260409091208351610734928501906113a1565b50600081815260036020526040902089518a919061075590829060026113ec565b50602082015161076b90600280840191906113ec565b5090505060005b87518110156107fc576000828152600560205260409020885189908390811061079d5761079d611ff4565b60209081029190910181015182546001810184556000938452919092208251600490920201906107d090829060026113ec565b5060208201516107e690600280840191906113ec565b50505080806107f490612020565b915050610772565b5060005b885181101561086c57600082815260046020526040902089518a908390811061082b5761082b611ff4565b60209081029190910181015182546001818101855560009485529383902082516002909202019081559101519101558061086481612020565b915050610800565b5060005b86518110156108fa576000828152600860205260409020875188908390811061089b5761089b611ff4565b60209081029190910181015182546001810184556000938452919092208251600490920201906108ce90829060026113ec565b5060208201516108e490600280840191906113ec565b50505080806108f290612020565b915050610870565b5060005b835181101561098f5783818151811061091957610919611ff4565b60200260200101516009600084815260200190815260200160002086838151811061094657610946611ff4565b602002602001015160405161095b9190611f9e565b9081526020016040518091039020908051906020019061097c9291906113a1565b508061098781612020565b9150506108fe565b5060005b8551811015610a03576000828152600a6020526040902086518790839081106109be576109be611ff4565b602090810291909101810151825460018101845560009384529282902081516109f09491909101929190910190611419565b50806109fb81612020565b915050610993565b505050505050505050505050565b60606000610a1e83610e2b565b905080600003610a405760405162461bcd60e51b81526004016104f190612039565b600081815260086020908152604080832080548251818502810185019093528083529193909284015b82821015610616576000848152602090206040805160808101825291600485020190829081018260028282826020028201915b815481526020019060010190808311610a9c57505050918352505060408051808201918290526020909201919060028481019182845b815481526020019060010190808311610ad25750505050508152505081526020019060010190610a69565b60606000610b0a83610e2b565b905080600003610b2c5760405162461bcd60e51b81526004016104f190612039565b600081815260056020908152604080832080548251818502810185019093528083529193909284015b82821015610616576000848152602090206040805160808101825291600485020190829081018260028282826020028201915b815481526020019060010190808311610b8857505050918352505060408051808201918290526020909201919060028481019182845b815481526020019060010190808311610bbe5750505050508152505081526020019060010190610b55565b60408051808201909152600080825260208201526000610c0883610297565b905080600003610c495760405162461bcd60e51b815260206004820152600c60248201526b27379039bab1b4102a2a281760a11b60448201526064016104f1565b6000908152600e6020908152604091829020825180840190935280548352600101549082015292915050565b6000546001600160a01b03163314610c8c57600080fd5b610c9583610297565b15610ce25760405162461bcd60e51b815260206004820152601860248201527f545450206e616d6520616c7265616479206578697374732e000000000000000060448201526064016104f1565b610ceb83611375565b6000610cf684610297565b905060005b8251811015610d67576000828152600d602052604090208351849083908110610d2657610d26611ff4565b602090810291909101810151825460018181018555600094855293839020825160029092020190815591015191015580610d5f81612020565b915050610cfb565b506000908152600e60209081526040909120835181559201516001909201919091555050565b60606000610d9a83610e2b565b905080600003610dbc5760405162461bcd60e51b81526004016104f190612039565b600081815260066020908152604080832080548251818502810185019093528083529193909284015b8282101561061657838290600052602060002090600202016040518060400160405290816000820154815260200160018201548152505081526020019060010190610de5565b60006002826040516102a99190611f9e565b60606000610e4a83610e2b565b905080600003610e6c5760405162461bcd60e51b81526004016104f190612039565b60008181526004602090815260408083208054825181850281018501909352808352919390928401821561061657838290600052602060002090600202016040518060400160405290816000820154815260200160018201548152505081526020019060010190610de5565b60606000610ee583610e2b565b905080600003610f075760405162461bcd60e51b81526004016104f190612039565b60008181526007602090815260409182902080548351818402810184019094528084529091830182828015610f5b57602002820191906000526020600020905b815481526020019060010190808311610f47575b5050505050915050919050565b610f70611472565b6000610f7b83610e2b565b905080600003610f9d5760405162461bcd60e51b81526004016104f190612039565b60008181526003602052604090819020815160808101835291829081018260028282826020028201915b815481526020019060010190808311610fc757505050918352505060408051808201918290526020909201919060028481019182845b815481526020019060010190808311610ffd57505050505081525050915050919050565b6060600061102e84610e2b565b9050806000036110505760405162461bcd60e51b81526004016104f190612039565b61105a81846102bf565b6110b25760405162461bcd60e51b815260206004820152602360248201527f53756368206120636f6d62696e6174696f6e206973206e6f7420706f7373696260448201526236329760e91b60648201526084016104f1565b600083516001600160401b038111156110cd576110cd611597565b60405190808252806020026020018201604052801561110057816020015b60608152602001906001900390816110eb5790505b50905060005b8451811015611275576000838152600960205260409020855186908390811061113157611131611ff4565b60200260200101516040516111469190611f9e565b908152604051908190036020019020546001600160401b0381111561116d5761116d611597565b604051908082528060200260200182016040528015611196578160200160208202803683370190505b508282815181106111a9576111a9611ff4565b6020026020010181905250600960008481526020019081526020016000208582815181106111d9576111d9611ff4565b60200260200101516040516111ee9190611f9e565b908152604080519182900360209081018320805480830285018301909352828452919083018282801561124057602002820191906000526020600020905b81548152602001906001019080831161122c575b505050505082828151811061125757611257611ff4565b6020026020010181905250808061126d90612020565b915050611106565b50949350505050565b6060600061128b83610297565b9050806000036112cb5760405162461bcd60e51b815260206004820152600b60248201526a04e6f2073756368205454560ac1b60448201526064016104f1565b6000818152600d602090815260408083208054825181850281018501909352808352919390928401821561061657838290600052602060002090600202016040518060400160405290816000820154815260200160018201548152505081526020019060010190610de5565b6001806000828254611349919061205e565b9091555050600154604051600290611362908490611f9e565b9081526040519081900360200190205550565b6001600b6000828254611388919061205e565b9091555050600b54604051600c90611362908490611f9e565b8280548282559060005260206000209081019282156113dc579160200282015b828111156113dc5782518255916020019190600101906113c1565b506113e8929150611497565b5090565b82600281019282156113dc57916020028201828111156113dc5782518255916020019190600101906113c1565b828054828255906000526020600020908101928215611466579160200282015b8281111561146657825180516114569184916020909101906114ac565b5091602001919060010190611439565b506113e892915061151f565b604051806040016040528061148561153c565b815260200161149261153c565b905290565b5b808211156113e85760008155600101611498565b8280546114b890611fba565b90600052602060002090601f0160209004810192826114da57600085556113dc565b82601f106114f357805160ff19168380011785556113dc565b828001600101855582156113dc57918201828111156113dc5782518255916020019190600101906113c1565b808211156113e8576000611533828261155a565b5060010161151f565b60405180604001604052806002906020820280368337509192915050565b50805461156690611fba565b6000825580601f10611576575050565b601f0160209004906000526020600020908101906115949190611497565b50565b634e487b7160e01b600052604160045260246000fd5b604080519081016001600160401b03811182821017156115cf576115cf611597565b60405290565b604051601f8201601f191681016001600160401b03811182821017156115fd576115fd611597565b604052919050565b600082601f83011261161657600080fd5b81356001600160401b0381111561162f5761162f611597565b611642601f8201601f19166020016115d5565b81815284602083860101111561165757600080fd5b816020850160208301376000918101602001919091529392505050565b60006020828403121561168657600080fd5b81356001600160401b0381111561169c57600080fd5b6116a884828501611605565b949350505050565b60006001600160401b038211156116c9576116c9611597565b5060051b60200190565b600082601f8301126116e457600080fd5b813560206116f96116f4836116b0565b6115d5565b82815260059290921b8401810191818101908684111561171857600080fd5b8286015b848110156117575780356001600160401b0381111561173b5760008081fd5b6117498986838b0101611605565b84525091830191830161171c565b509695505050505050565b6000806040838503121561177557600080fd5b8235915060208301356001600160401b0381111561179257600080fd5b61179e858286016116d3565b9150509250929050565b60005b838110156117c35781810151838201526020016117ab565b838111156117d2576000848401525b50505050565b60208152600060208201835180825260408401915060408160051b8501016020860160005b8381101561189157868303603f19018552815180518085526020918201918086019190600582901b87010160005b8281101561187757601f1980898403018552855180518085526118558160208701602085016117a8565b60209788019796870196601f919091019092169390930101915060010161182b565b5060209889019890965094909401935050506001016117fd565b50909695505050505050565b6000604082840312156118af57600080fd5b6118b76115ad565b9050813581526020820135602082015292915050565b600082601f8301126118de57600080fd5b813560206118ee6116f4836116b0565b82815260069290921b8401810191818101908684111561190d57600080fd5b8286015b8481101561175757611923888261189d565b835291830191604001611911565b600082601f83011261194257600080fd5b604051604081018181106001600160401b038211171561196457611964611597565b806040525080604084018581111561197b57600080fd5b845b8181101561199557803583526020928301920161197d565b509195945050505050565b6000608082840312156119b257600080fd5b6119ba6115ad565b90506119c68383611931565b81526119d58360408401611931565b602082015292915050565b600082601f8301126119f157600080fd5b81356020611a016116f4836116b0565b82815260079290921b84018101918181019086841115611a2057600080fd5b8286015b8481101561175757611a3688826119a0565b835291830191608001611a24565b600082601f830112611a5557600080fd5b81356020611a656116f4836116b0565b82815260059290921b84018101918181019086841115611a8457600080fd5b8286015b848110156117575780356001600160401b03811115611aa75760008081fd5b611ab58986838b01016116d3565b845250918301918301611a88565b600082601f830112611ad457600080fd5b81356020611ae46116f4836116b0565b82815260059290921b84018101918181019086841115611b0357600080fd5b8286015b848110156117575780358352918301918301611b07565b600082601f830112611b2f57600080fd5b81356020611b3f6116f4836116b0565b82815260059290921b84018101918181019086841115611b5e57600080fd5b8286015b848110156117575780356001600160401b03811115611b815760008081fd5b611b8f8986838b0101611ac3565b845250918301918301611b62565b6000806000806000806000806000806101a08b8d031215611bbd57600080fd5b8a356001600160401b0380821115611bd457600080fd5b611be08e838f01611605565b9b5060208d0135915080821115611bf657600080fd5b611c028e838f016118cd565b9a50611c118e60408f016119a0565b995060c08d0135915080821115611c2757600080fd5b611c338e838f016118cd565b985060e08d0135915080821115611c4957600080fd5b611c558e838f016119e0565b97506101008d0135915080821115611c6c57600080fd5b611c788e838f016119e0565b96506101208d0135915080821115611c8f57600080fd5b611c9b8e838f01611a44565b95506101408d0135915080821115611cb257600080fd5b611cbe8e838f016116d3565b94506101608d0135915080821115611cd557600080fd5b611ce18e838f01611b1e565b93506101808d0135915080821115611cf857600080fd5b50611d058d828e01611ac3565b9150509295989b9194979a5092959850565b8060005b60028110156117d2578151845260209384019390910190600101611d1b565b611d45828251611d17565b6020810151611d576040840182611d17565b505050565b6020808252825182820181905260009190848201906040850190845b8181101561189157611d8b838551611d3a565b9284019260809290920191600101611d78565b8151815260208083015190820152604081016104bc565b600080600060808486031215611dca57600080fd5b83356001600160401b0380821115611de157600080fd5b611ded87838801611605565b9450611dfc876020880161189d565b93506060860135915080821115611e1257600080fd5b50611e1f868287016118cd565b9150509250925092565b602080825282518282018190526000919060409081850190868401855b82811015611e7357611e6384835180518252602090810151910152565b9284019290850190600101611e46565b5091979650505050505050565b600081518084526020808501945080840160005b83811015611eb057815187529582019590820190600101611e94565b509495945050505050565b602081526000611ece6020830184611e80565b9392505050565b608081016104bc8284611d3a565b60008060408385031215611ef657600080fd5b82356001600160401b0380821115611f0d57600080fd5b611f1986838701611605565b93506020850135915080821115611f2f57600080fd5b5061179e858286016116d3565b6000602080830181845280855180835260408601915060408160051b870101925083870160005b82811015611f9157603f19888603018452611f7f858351611e80565b94509285019290850190600101611f63565b5092979650505050505050565b60008251611fb08184602087016117a8565b9190910192915050565b600181811c90821680611fce57607f821691505b602082108103611fee57634e487b7160e01b600052602260045260246000fd5b50919050565b634e487b7160e01b600052603260045260246000fd5b634e487b7160e01b600052601160045260246000fd5b6000600182016120325761203261200a565b5060010190565b6020808252600b908201526a27379039bab1b41020a19760a91b604082015260600190565b600082198211156120715761207161200a565b50019056fea2646970667358221220ce3637c38656f5b513ace1a0a17e7eec007db7b523ece7ef7438746f0b02140e64736f6c634300080d0033",
  "immutableReferences": {},
  "source": "// SPDX-License-Identifier: GPL-3.0\npragma solidity >=0.7.0 <0.9.0;\npragma experimental ABIEncoderV2;\n\nimport {G} from \"../libraries/G.sol\";\n\ncontract Params {\n    \n    address private owner;  \n    constructor() {    \n        owner = msg.sender;\n    }\n\n    uint256 private credentialCount = 0;\n\n    mapping(string => uint256) private mapCredentials;\n    function setMapCredentials(string memory name) private {\n        credentialCount += 1;\n        mapCredentials[name] = credentialCount;  \n    }\n\n    function getMapCredentials(string memory name) public view returns (uint256) {\n        return mapCredentials[name];\n    }\n\n    mapping(uint256 => G.G2Point) private alpha;\n    mapping(uint256 => G.G1Point[]) private g1_beta;\n    mapping(uint256 => G.G2Point[]) private beta;\n    mapping(uint256 => G.G1Point[]) private hs;\n    mapping(uint256 => uint256[]) private public_m_encoding;\n    mapping(uint256 => G.G2Point[]) private opk;\n    mapping(uint256 =>  mapping(string => uint256[])) private include_indexes;\n    mapping(uint256 => string[][]) private ttp_combinations;\n\n    uint256 private TTPCount = 0;\n    mapping(string => uint256) private mapTTPs;\n    function setMapTTPs(string memory name) private {\n        TTPCount += 1;\n        mapTTPs[name] = TTPCount;  \n    }\n\n    function getMapTTPs(string memory name) public view returns (uint256) {\n        return mapTTPs[name];\n    }\n\n    mapping(uint256 => G.G1Point[]) private ttp_hs;\n    mapping(uint256 => G.G1Point) private ttp_pk;\n\n    modifier onlyOwner {\n        require(msg.sender == owner);\n        _;\n    }\n\n    function set_params(string memory _name, G.G1Point[] memory _hs, G.G2Point memory _alpha, G.G1Point[] memory _g1_beta, G.G2Point[] memory _beta, G.G2Point[] memory _opk, string[][] memory _combinations, string[] memory _dependent_ttps, uint256[][] memory _include_indexes, uint256[] memory _public_m_encoding) public onlyOwner {\n        require (getMapCredentials(_name) == 0, \"AC name already exists.\");\n        setMapCredentials(_name);\n        uint256 id = getMapCredentials(_name);\n        for(uint256 i=0; i < _hs.length; i++) {\n            hs[id].push(_hs[i]);\n        }\n        public_m_encoding[id] = _public_m_encoding;\n        alpha[id] = _alpha;\n        for(uint256 i=0; i < _beta.length; i++) {\n            beta[id].push(_beta[i]);\n        }\n        for(uint256 i=0; i < _g1_beta.length; i++) {\n            g1_beta[id].push(_g1_beta[i]);\n        }\n        for(uint256 i=0; i < _opk.length; i++) {\n            opk[id].push(_opk[i]);\n        }\n        for(uint256 i=0; i < _include_indexes.length; i++) {\n            include_indexes[id][_dependent_ttps[i]] = _include_indexes[i];\n        }\n        for(uint256 i=0; i < _combinations.length; i++) {\n            ttp_combinations[id].push(_combinations[i]);\n        }\n        \n    }\n\n    function set_ttp_params(string memory _name, G.G1Point memory _ttp_pk, G.G1Point[] memory _hs) public onlyOwner {\n        require (getMapTTPs(_name) == 0, \"TTP name already exists.\");\n        setMapTTPs(_name);\n        uint256 id = getMapTTPs(_name);\n        for(uint256 i=0; i < _hs.length; i++) {\n            ttp_hs[id].push(_hs[i]);\n        }\n        ttp_pk[id] = _ttp_pk;\n    }\n        \n    function get_hs(string memory _name) public view returns (G.G1Point[] memory) {\n        uint256 id = getMapCredentials(_name);\n        require(id != 0, \"No such AC.\");\n        return hs[id];\n    }\n\n    function get_public_m_encoding(string memory _name) public view returns (uint256[] memory) {\n        uint256 id = getMapCredentials(_name);\n        require(id != 0, \"No such AC.\");\n        return public_m_encoding[id];\n    }\n\n    function get_alpha(string memory _name) public view returns (G.G2Point memory) {\n        uint256 id = getMapCredentials(_name);\n        require(id != 0, \"No such AC.\");\n        return alpha[id];\n    }\n    \n    function get_beta(string memory _name) public view returns (G.G2Point[] memory) {\n        uint256 id = getMapCredentials(_name);\n        require(id != 0, \"No such AC.\");\n        return beta[id];\n    }\n\n    function get_g1_beta(string memory _name) public view returns (G.G1Point[] memory) {\n        uint256 id = getMapCredentials(_name);\n        require(id != 0, \"No such AC.\");\n        return g1_beta[id];\n    }\n    \n    function get_opk(string memory _name) public view returns (G.G2Point[] memory) {\n        uint256 id = getMapCredentials(_name);\n        require(id != 0, \"No such AC.\");\n        return opk[id];\n    }\n\n    function checkCombination(uint256 id, string[] memory combination) public view returns(bool) {\n        string[][] memory all_combinations = ttp_combinations[id];\n        for(uint256 i = 0; i < all_combinations.length; i++ ) {\n            if(all_combinations[i].length == combination.length) {\n                uint256 j = 0;\n                for(j = 0; j < combination.length; j++ ) {\n                    if (keccak256(bytes(all_combinations[i][j])) != keccak256(bytes(combination[j]))) {\n                        break;\n                    }\n                }\n                if ( j == combination.length) {\n                    return true;\n                }\n            }\n        }\n        return false;\n    }\n\n    function get_include_indexes(string memory _name, string[] memory combination) public view returns(uint256[][] memory) {\n        uint256 id = getMapCredentials(_name);\n        require(id != 0, \"No such AC.\");\n        require(checkCombination(id, combination), \"Such a combination is not possible.\");\n        uint256[][] memory _include_indexes = new uint256[][](combination.length);\n        for(uint256 i = 0; i < combination.length; i++ ) {\n            _include_indexes[i] = new uint256[](include_indexes[id][combination[i]].length); \n            _include_indexes[i] = include_indexes[id][combination[i]];\n        }\n        return _include_indexes;\n    }\n\n    function get_ttp_combinations(string memory _name) public view returns(string[][] memory) {\n        uint256 id = getMapCredentials(_name);\n        require(id != 0, \"No such AC.\");\n        return ttp_combinations[id];\n    }\n\n    function get_ttpKeys(string memory _name) public view returns(G.G1Point memory) {\n        uint256 id = getMapTTPs(_name);\n        require(id != 0, \"No such TTP.\");\n        return ttp_pk[id];\n    }\n\n    function get_ttp_params(string memory _name) public view returns(G.G1Point[] memory) {\n        uint256 id = getMapTTPs(_name);\n        require(id != 0, \"No such TTP\");\n        return ttp_hs[id];\n    }\n\n}",
  "sourcePath": "/home/thinh/Documents/workspace/dtrac1/contracts/Params.sol",
  "compiler": {
    "name": "solc",
    "version": "0.8.13+commit.abaa5c0e.Emscripten.clang"
  },
  "schemaVersion": "3.4.16",
  "updatedAt": "2025-06-24T09:10:47.078Z",
  "networkType": "ethereum",
  "devdoc": {
    "kind": "dev",
    "methods": {},
    "version": 1
  },
  "userdoc": {
    "kind": "user",
    "methods": {},
    "version": 1
  }
}