{
  "contractName": "Request",
  "abi": [
    {
      "inputs": [
        {
          "internalType": "contract Params",
          "name": "_params",
          "type": "address"
        }
      ],
      "stateMutability": "nonpayable",
      "type": "constructor"
    },
    {
      "anonymous": false,
      "inputs": [
        {
          "indexed": true,
          "internalType": "uint256",
          "name": "id",
          "type": "uint256"
        },
        {
          "indexed": false,
          "internalType": "address",
          "name": "sender",
          "type": "address"
        },
        {
          "indexed": false,
          "internalType": "uint256[4][]",
          "name": "vcerts",
          "type": "uint256[4][]"
        },
        {
          "indexed": false,
          "internalType": "uint256[2]",
          "name": "cm",
          "type": "uint256[2]"
        },
        {
          "indexed": false,
          "internalType": "uint256[2][]",
          "name": "commitments",
          "type": "uint256[2][]"
        },
        {
          "indexed": false,
          "internalType": "uint256[8][]",
          "name": "ciphershares",
          "type": "uint256[8][]"
        },
        {
          "indexed": false,
          "internalType": "string[]",
          "name": "public_m",
          "type": "string[]"
        },
        {
          "indexed": false,
          "internalType": "string[]",
          "name": "combination",
          "type": "string[]"
        }
      ],
      "name": "emitRequest",
      "type": "event"
    },
    {
      "inputs": [
        {
          "internalType": "address",
          "name": "addr",
          "type": "address"
        }
      ],
      "name": "set_params",
      "outputs": [],
      "stateMutability": "nonpayable",
      "type": "function"
    },
    {
      "inputs": [
        {
          "internalType": "string",
          "name": "name",
          "type": "string"
        },
        {
          "components": [
            {
              "components": [
                {
                  "internalType": "uint256",
                  "name": "X",
                  "type": "uint256"
                },
                {
                  "internalType": "uint256",
                  "name": "Y",
                  "type": "uint256"
                }
              ],
              "internalType": "struct G.G1Point",
              "name": "commit",
              "type": "tuple"
            },
            {
              "internalType": "uint256[2]",
              "name": "signature",
              "type": "uint256[2]"
            }
          ],
          "internalType": "struct Request.Vcert[]",
          "name": "vcerts",
          "type": "tuple[]"
        },
        {
          "components": [
            {
              "internalType": "uint256",
              "name": "X",
              "type": "uint256"
            },
            {
              "internalType": "uint256",
              "name": "Y",
              "type": "uint256"
            }
          ],
          "internalType": "struct G.G1Point",
          "name": "cm",
          "type": "tuple"
        },
        {
          "components": [
            {
              "components": [
                {
                  "internalType": "uint256",
                  "name": "X",
                  "type": "uint256"
                },
                {
                  "internalType": "uint256",
                  "name": "Y",
                  "type": "uint256"
                }
              ],
              "internalType": "struct G.G1Point[]",
              "name": "commitments",
              "type": "tuple[]"
            },
            {
              "components": [
                {
                  "components": [
                    {
                      "internalType": "uint256[2]",
                      "name": "X",
                      "type": "uint256[2]"
                    },
                    {
                      "internalType": "uint256[2]",
                      "name": "Y",
                      "type": "uint256[2]"
                    }
                  ],
                  "internalType": "struct G.G2Point[2]",
                  "name": "X",
                  "type": "tuple[2]"
                }
              ],
              "internalType": "struct Request.Ciphershare[]",
              "name": "ciphershares",
              "type": "tuple[]"
            }
          ],
          "internalType": "struct Request.Compresser",
          "name": "compressed_params",
          "type": "tuple"
        },
        {
          "components": [
            {
              "internalType": "uint256",
              "name": "X",
              "type": "uint256"
            },
            {
              "internalType": "uint256",
              "name": "Y",
              "type": "uint256"
            }
          ],
          "internalType": "struct G.G1Point[][]",
          "name": "hidden_p",
          "type": "tuple[][]"
        },
        {
          "components": [
            {
              "internalType": "uint256",
              "name": "X",
              "type": "uint256"
            },
            {
              "internalType": "uint256",
              "name": "Y",
              "type": "uint256"
            }
          ],
          "internalType": "struct G.G1Point[]",
          "name": "hr",
          "type": "tuple[]"
        },
        {
          "components": [
            {
              "internalType": "uint256[2]",
              "name": "X",
              "type": "uint256[2]"
            },
            {
              "internalType": "uint256[2]",
              "name": "Y",
              "type": "uint256[2]"
            }
          ],
          "internalType": "struct G.G2Point[]",
          "name": "bo",
          "type": "tuple[]"
        },
        {
          "components": [
            {
              "internalType": "uint256",
              "name": "c",
              "type": "uint256"
            },
            {
              "internalType": "uint256",
              "name": "rr",
              "type": "uint256"
            },
            {
              "internalType": "uint256[]",
              "name": "ros",
              "type": "uint256[]"
            },
            {
              "internalType": "uint256[][]",
              "name": "total_rm",
              "type": "uint256[][]"
            },
            {
              "internalType": "string[]",
              "name": "combination",
              "type": "string[]"
            }
          ],
          "internalType": "struct Request.IssueProof",
          "name": "iproof",
          "type": "tuple"
        },
        {
          "components": [
            {
              "internalType": "uint256[]",
              "name": "c",
              "type": "uint256[]"
            },
            {
              "internalType": "uint256[]",
              "name": "rr",
              "type": "uint256[]"
            },
            {
              "internalType": "uint256[][]",
              "name": "rs",
              "type": "uint256[][]"
            }
          ],
          "internalType": "struct Request.OpenProof",
          "name": "oproof",
          "type": "tuple"
        },
        {
          "components": [
            {
              "components": [
                {
                  "internalType": "uint256[2]",
                  "name": "X",
                  "type": "uint256[2]"
                },
                {
                  "internalType": "uint256[2]",
                  "name": "Y",
                  "type": "uint256[2]"
                }
              ],
              "internalType": "struct G.G2Point[]",
              "name": "Dw",
              "type": "tuple[]"
            },
            {
              "components": [
                {
                  "internalType": "uint256[2]",
                  "name": "X",
                  "type": "uint256[2]"
                },
                {
                  "internalType": "uint256[2]",
                  "name": "Y",
                  "type": "uint256[2]"
                }
              ],
              "internalType": "struct G.G2Point[]",
              "name": "Ew",
              "type": "tuple[]"
            }
          ],
          "internalType": "struct Request.G2PointCompresser",
          "name": "compressedG2points",
          "type": "tuple"
        },
        {
          "internalType": "string[]",
          "name": "public_m",
          "type": "string[]"
        }
      ],
      "name": "RequestCred",
      "outputs": [],
      "stateMutability": "nonpayable",
      "type": "function"
    }
  ],
  "bytecode": "0x60806040523480156200001157600080fd5b5060405162004dc938038062004dc9833981016040819052620000349162000068565b60018054336001600160a01b031991821617909155600080549091166001600160a01b03929092169190911790556200009a565b6000602082840312156200007b57600080fd5b81516001600160a01b03811681146200009357600080fd5b9392505050565b614d1f80620000aa6000396000f3fe608060405234801561001057600080fd5b50600436106100365760003560e01c80631f667ea81461003b57806385b7937a14610050575b600080fd5b61004e6100493660046142fa565b610063565b005b61004e61005e3660046144a4565b6101bc565b61006e8b8b866101f5565b6100d25760405162461bcd60e51b815260206004820152602a60248201527f56657269666961626c65206365727469666963617465207665726966696361746044820152691a5bdb8819985a5b195960b21b60648201526084015b60405180910390fd5b6100df8b858b8b8e61052a565b6101365760405162461bcd60e51b815260206004820152602260248201527f69737375616e6365205a4b506f4b20766572696669636174696f6e206661696c604482015261195960f21b60648201526084016100c9565b6101468b848b8b868c8c8c61061e565b61019c5760405162461bcd60e51b815260206004820152602160248201527f4f70656e696e67205a4b506f4b20766572696669636174696f6e206661696c656044820152601960fa1b60648201526084016100c9565b6101af8b338c8c8c868a608001516107ad565b5050505050505050505050565b6001546001600160a01b031633146101d357600080fd5b600080546001600160a01b0319166001600160a01b0392909216919091179055565b60008060008360800151905080518551146102455760405162461bcd60e51b815260206004820152601060248201526f2130b21031b7b6b134b730ba34b7b71760811b60448201526064016100c9565b6000805460405163144323a760e31b81526001600160a01b039091169063a2191d3890610276908a90600401614529565b602060405180830381865afa158015610293573d6000803e3d6000fd5b505050506040513d601f19601f820116820180604052508101906102b7919061453c565b9050806000036102f75760405162461bcd60e51b815260206004820152600b60248201526a27379039bab1b41020a19760a91b60448201526064016100c9565b600054604051634b95cd3160e01b81526001600160a01b0390911690634b95cd319061032990849086906004016145aa565b602060405180830381865afa158015610346573d6000803e3d6000fd5b505050506040513d601f19601f8201168201806040525081019061036a91906145cb565b6103a95760405162461bcd60e51b815260206004820152601060248201526f2130b21031b7b6b134b730ba34b7b71760811b60448201526064016100c9565b60005b86518110156104b7576104918782815181106103ca576103ca6145ed565b60200260200101516000015160008054906101000a90046001600160a01b03166001600160a01b0316637e1b39bf86858151811061040a5761040a6145ed565b60200260200101516040518263ffffffff1660e01b815260040161042e9190614529565b6040805180830381865afa15801561044a573d6000803e3d6000fd5b505050506040513d601f19601f8201168201806040525081019061046e9190614633565b898481518110610480576104806145ed565b602002602001015160200151610f48565b9350836104a5576000945050505050610523565b806104af81614665565b9150506103ac565b506104c185610fe2565b61051b5760405162461bcd60e51b815260206004820152602560248201527f6d617374657220736563726574206b657920766572696669636174696f6e2066604482015264185a5b195960da1b60648201526084016100c9565b600193505050505b9392505050565b6000806105428787608001518660000151888a61109a565b90506000610556888860800151888a611480565b905060006105698860800151868a611844565b905061060c8761058061057b8a611ac6565b611c0e565b8460008054906101000a90046001600160a01b03166001600160a01b03166394dee9cc8e6040518263ffffffff1660e01b81526004016105c09190614529565b600060405180830381865afa1580156105dd573d6000803e3d6000fd5b505050506040513d6000823e601f3d908101601f19168201604052610605919081019061467e565b8786611c9d565b88511493505050505b95945050505050565b6000610633856000015187602001518a6121c7565b61063f5761063f61470e565b610658898660200151886000015189602001518c6123cb565b6106645761066461470e565b600061067261057b89611ac6565b60008054604051632537ba7360e21b815292935090916001600160a01b03909116906394dee9cc906106a8908e90600401614529565b600060405180830381865afa1580156106c5573d6000803e3d6000fd5b505050506040513d6000823e601f3d908101601f191682016040526106ed919081019061467e565b905060005b8a6020015151811015610784576107458389600001518381518110610719576107196145ed565b60200260200101518a602001518481518110610737576107376145ed565b6020026020010151856127fb565b8b51805183908110610759576107596145ed565b60200260200101511461077257600093505050506107a1565b8061077c81614665565b9150506106f2565b5061079c8b89600001518a60200151858a8a8a612b59565b925050505b98975050505050505050565b600085516001600160401b038111156107c8576107c8613aca565b60405190808252806020026020018201604052801561080157816020015b6107ee6139f0565b8152602001906001900390816107e65790505b50905060005b865181101561099a57868181518110610822576108226145ed565b60200260200101516000015160000151828281518110610844576108446145ed565b602002602001015160006004811061085e5761085e6145ed565b60200201528651879082908110610877576108776145ed565b60200260200101516000015160200151828281518110610899576108996145ed565b60200260200101516001600481106108b3576108b36145ed565b602002015286518790829081106108cc576108cc6145ed565b6020026020010151602001516000600281106108ea576108ea6145ed565b6020020151828281518110610901576109016145ed565b602002602001015160026004811061091b5761091b6145ed565b60200201528651879082908110610934576109346145ed565b602002602001015160200151600160028110610952576109526145ed565b6020020151828281518110610969576109696145ed565b6020026020010151600360048110610983576109836145ed565b60200201528061099281614665565b915050610807565b506040805180820190915285518152602080870151908201528451516000906001600160401b038111156109d0576109d0613aca565b604051908082528060200260200182016040528015610a0957816020015b6109f6613a0e565b8152602001906001900390816109ee5790505b50905060005b865151811015610acd578651805182908110610a2d57610a2d6145ed565b602002602001015160000151828281518110610a4b57610a4b6145ed565b6020026020010151600060028110610a6557610a656145ed565b60200201528651805182908110610a7e57610a7e6145ed565b602002602001015160200151828281518110610a9c57610a9c6145ed565b6020026020010151600160028110610ab657610ab66145ed565b602002015280610ac581614665565b915050610a0f565b5060008660200151516001600160401b03811115610aed57610aed613aca565b604051908082528060200260200182016040528015610b2657816020015b610b13613a2c565b815260200190600190039081610b0b5790505b50905060005b876020015151811015610e435787602001518181518110610b4f57610b4f6145ed565b6020908102919091010151515151518251839083908110610b7257610b726145ed565b6020026020010151600060088110610b8c57610b8c6145ed565b60200201818152505087602001518181518110610bab57610bab6145ed565b60209081029190910181015151515101518251839083908110610bd057610bd06145ed565b6020026020010151600160088110610bea57610bea6145ed565b60200201818152505087602001518181518110610c0957610c096145ed565b60209081029190910181015151510151518251839083908110610c2e57610c2e6145ed565b6020026020010151600260088110610c4857610c486145ed565b60200201818152505087602001518181518110610c6757610c676145ed565b6020908102919091018101515151015160016020020151828281518110610c9057610c906145ed565b6020026020010151600360088110610caa57610caa6145ed565b60200201818152505087602001518181518110610cc957610cc96145ed565b60209081029190910181015151015151518251839083908110610cee57610cee6145ed565b6020026020010151600460088110610d0857610d086145ed565b60200201818152505087602001518181518110610d2757610d276145ed565b602090810291909101810151518101515101518251839083908110610d4e57610d4e6145ed565b6020026020010151600560088110610d6857610d686145ed565b60200201818152505087602001518181518110610d8757610d876145ed565b602090810291909101810151518101510151518251839083908110610dae57610dae6145ed565b6020026020010151600660088110610dc857610dc86145ed565b60200201818152505087602001518181518110610de757610de76145ed565b60209081029190910181015151810151015160016020020151828281518110610e1257610e126145ed565b6020026020010151600760088110610e2c57610e2c6145ed565b602002015280610e3b81614665565b915050610b2c565b506000805460405163144323a760e31b81526001600160a01b039091169063a2191d3890610e75908f90600401614529565b602060405180830381865afa158015610e92573d6000803e3d6000fd5b505050506040513d601f19601f82011682018060405250810190610eb6919061453c565b905080600003610ef65760405162461bcd60e51b815260206004820152600b60248201526a27379039bab1b41020a19760a91b60448201526064016100c9565b807f62533e24dd065922a9e8ab2341828597be6530331b626f7cbd2473112d8be6af8c878787878d8d604051610f3297969594939291906147ee565b60405180910390a2505050505050505050505050565b600080610f5485611ac6565b90506000610f778460016020020151600080516020614cca83398151915261300f565b90506000600080516020614cca83398151915282840990506000600080516020614cca833981519152865184900990506000610fba610fb4613060565b84613089565b9050610fcf81610fca8a85613089565b6130e7565b9651965190961498975050505050505050565b600060015b6001836060015151610ff991906148cb565b8110156110915782606001518181518110611016576110166145ed565b6020026020010151600081518110611030576110306145ed565b6020026020010151836060015160008151811061104f5761104f6145ed565b6020026020010151600081518110611069576110696145ed565b60200260200101511461107f5750600092915050565b8061108981614665565b915050610fe7565b50600192915050565b6060600082604001519050600081516001600160401b038111156110c0576110c0613aca565b60405190808252806020026020018201604052801561110557816020015b60408051808201909152600080825260208201528152602001906001900390816110de5790505b5090506000846060015190506000816001835161112291906148cb565b81518110611132576111326145ed565b60200260200101515186604001515161114b91906148e2565b6001600160401b0381111561116257611162613aca565b60405190808252806020026020018201604052801561118b578160200160208202803683370190505b506000805460405163fcd3c13160e01b8152929350909182916001600160a01b03169063fcd3c131906111c4908f908f906004016148fa565b600060405180830381865afa1580156111e1573d6000803e3d6000fd5b505050506040513d6000823e601f3d908101601f19168201604052611209919081019061491f565b905060005b6001855161121c91906148cb565b8110156113055760005b858281518110611238576112386145ed565b6020026020010151518110156112f25782828151811061125a5761125a6145ed565b60200260200101518181518110611273576112736145ed565b60200260200101516001036112e057858281518110611294576112946145ed565b602002602001015181815181106112ad576112ad6145ed565b60200260200101518585815181106112c7576112c76145ed565b60209081029190910101526112dd8460016148e2565b93505b806112ea81614665565b915050611226565b50806112fd81614665565b91505061120e565b5060005b846001865161131891906148cb565b81518110611328576113286145ed565b6020026020010151518110156113b457846001865161134791906148cb565b81518110611357576113576145ed565b60200260200101518181518110611370576113706145ed565b602002602001015184848151811061138a5761138a6145ed565b60209081029190910101526113a08360016148e2565b9250806113ac81614665565b915050611309565b5060006113c361057b8b611ac6565b905060005b875181101561146e5761143e6113fb8d83815181106113e9576113e96145ed565b60200260200101518c60000151613089565b610fca611428611409613060565b8c868151811061141b5761141b6145ed565b6020026020010151613089565b610fca868a878151811061141b5761141b6145ed565b878281518110611450576114506145ed565b6020026020010181905250808061146690614665565b9150506113c8565b50949c9b505050505050505050505050565b6040805180820190915260008082526020820152815160208301516060840151805160009082906114b3906001906148cb565b815181106114c3576114c36145ed565b6020026020010151518660400151516114dc91906148e2565b6001600160401b038111156114f3576114f3613aca565b60405190808252806020026020018201604052801561151c578160200160208202803683370190505b506000805460405163fcd3c13160e01b8152929350909182916001600160a01b03169063fcd3c13190611555908e908e906004016148fa565b600060405180830381865afa158015611572573d6000803e3d6000fd5b505050506040513d6000823e601f3d908101601f1916820160405261159a919081019061491f565b905060005b600185516115ad91906148cb565b8110156116965760005b8582815181106115c9576115c96145ed565b602002602001015151811015611683578282815181106115eb576115eb6145ed565b60200260200101518181518110611604576116046145ed565b602002602001015160010361167157858281518110611625576116256145ed565b6020026020010151818151811061163e5761163e6145ed565b6020026020010151858581518110611658576116586145ed565b602090810291909101015261166e8460016148e2565b93505b8061167b81614665565b9150506115b7565b508061168e81614665565b91505061159f565b5060005b84600186516116a991906148cb565b815181106116b9576116b96145ed565b6020026020010151518110156117455784600186516116d891906148cb565b815181106116e8576116e86145ed565b60200260200101518181518110611701576117016145ed565b602002602001015184848151811061171b5761171b6145ed565b60209081029190910101526117318360016148e2565b92508061173d81614665565b91505061169a565b5060008054604051632537ba7360e21b81526001600160a01b03909116906394dee9cc90611777908f90600401614529565b600060405180830381865afa158015611794573d6000803e3d6000fd5b505050506040513d6000823e601f3d908101601f191682016040526117bc919081019061467e565b905060006117de6117cd8c8a613089565b610fca6117d8613060565b8a613089565b905060005b85518110156118335761181f82610fca858481518110611805576118056145ed565b602002602001015189858151811061141b5761141b6145ed565b91508061182b81614665565b9150506117e3565b509c9b505050505050505050505050565b6060818101518251815160009061185d906001906148cb565b6001600160401b0381111561187457611874613aca565b6040519080825280602002602001820160405280156118b957816020015b60408051808201909152600080825260208201528152602001906001900390816118925790505b50905060005b600184516118cd91906148cb565b811015611abb576000805489516001600160a01b039091169063fe79cc8c908b90859081106118fe576118fe6145ed565b60200260200101516040518263ffffffff1660e01b81526004016119229190614529565b600060405180830381865afa15801561193f573d6000803e3d6000fd5b505050506040513d6000823e601f3d908101601f19168201604052611967919081019061467e565b90506000611992898481518110611980576119806145ed565b60200260200101516000015186613089565b90506119f481610fca6119a3613060565b8987815181106119b5576119b56145ed565b602002602001015160018b89815181106119d1576119d16145ed565b6020026020010151516119e491906148cb565b8151811061141b5761141b6145ed565b905060005b6001878581518110611a0d57611a0d6145ed565b602002602001015151611a2091906148cb565b811015611a8757611a7382610fca858481518110611a4057611a406145ed565b60200260200101518a8881518110611a5a57611a5a6145ed565b6020026020010151858151811061141b5761141b6145ed565b915080611a7f81614665565b9150506119f9565b5080848481518110611a9b57611a9b6145ed565b602002602001018190525050508080611ab390614665565b9150506118bf565b509695505050505050565b805160208083015160408051818152606081018252600094938592908201818036833701905050905060005b6020811015611b4c57838160208110611b0d57611b0d6145ed565b1a60f81b828281518110611b2357611b236145ed565b60200101906001600160f81b031916908160001a90535080611b4481614665565b915050611af2565b5060005b6020811015611bb457828160208110611b6b57611b6b6145ed565b1a60f81b82611b7b8360206148e2565b81518110611b8b57611b8b6145ed565b60200101906001600160f81b031916908160001a90535080611bac81614665565b915050611b50565b600282604051611bc49190614a25565b602060405180830381855afa158015611be1573d6000803e3d6000fd5b5050506040513d601f19601f82011682018060405250810190611c04919061453c565b9695505050505050565b604080518082019091526000808252602082015260008080611c3e600080516020614cca83398151915286614a41565b90505b611c4a8161313d565b9093509150600080516020614caa8339815191528283098303611c83576040805180820190915290815260208101919091529392505050565b600080516020614caa833981519152600182089050611c41565b600080825184518651611cb091906148e2565b611cba91906148e2565b611cc5906020614a63565b611cd09060a06148e2565b6001600160401b03811115611ce757611ce7613aca565b6040519080825280601f01601f191660200182016040528015611d11576020820181803683370190505b5090506000611d26611d21613060565b611ac6565b905060005b6020811015611d8557818160208110611d4657611d466145ed565b1a60f81b838281518110611d5c57611d5c6145ed565b60200101906001600160f81b031916908160001a90535080611d7d81614665565b915050611d2b565b50611d96611d916131bf565b61327f565b905060005b6020811015611dff57818160208110611db657611db66145ed565b1a60f81b83611dc68360206148e2565b81518110611dd657611dd66145ed565b60200101906001600160f81b031916908160001a90535080611df781614665565b915050611d9b565b50611e0989611ac6565b905060005b6020811015611e7257818160208110611e2957611e296145ed565b1a60f81b83611e398360406148e2565b81518110611e4957611e496145ed565b60200101906001600160f81b031916908160001a90535080611e6a81614665565b915050611e0e565b50611e7c88611ac6565b905060005b6020811015611ee557818160208110611e9c57611e9c6145ed565b1a60f81b83611eac8360606148e2565b81518110611ebc57611ebc6145ed565b60200101906001600160f81b031916908160001a90535080611edd81614665565b915050611e81565b50611eef87611ac6565b905060005b6020811015611f5857818160208110611f0f57611f0f6145ed565b1a60f81b83611f1f8360806148e2565b81518110611f2f57611f2f6145ed565b60200101906001600160f81b031916908160001a90535080611f5081614665565b915050611ef4565b5060a060005b875181101561201157611f89888281518110611f7c57611f7c6145ed565b6020026020010151611ac6565b925060005b6020811015611ff157838160208110611fa957611fa96145ed565b1a60f81b85611fb885846148e2565b81518110611fc857611fc86145ed565b60200101906001600160f81b031916908160001a90535080611fe981614665565b915050611f8e565b50611ffd8260206148e2565b91508061200981614665565b915050611f5e565b5060005b86518110156120bb57612033878281518110611f7c57611f7c6145ed565b925060005b602081101561209b57838160208110612053576120536145ed565b1a60f81b8561206285846148e2565b81518110612072576120726145ed565b60200101906001600160f81b031916908160001a9053508061209381614665565b915050612038565b506120a78260206148e2565b9150806120b381614665565b915050612015565b5060005b8551811015612165576120dd868281518110611f7c57611f7c6145ed565b925060005b6020811015612145578381602081106120fd576120fd6145ed565b1a60f81b8561210c85846148e2565b8151811061211c5761211c6145ed565b60200101906001600160f81b031916908160001a9053508061213d81614665565b9150506120e2565b506121518260206148e2565b91508061215d81614665565b9150506120bf565b5060006002846040516121789190614a25565b602060405180830381855afa158015612195573d6000803e3d6000fd5b5050506040513d601f19601f820116820180604052508101906121b8919061453c565b9b9a5050505050505050505050565b60408051600380825260808201909252600091829190816020015b60408051808201909152600080825260208201528152602001906001900390816121e25750506040805160038082526080820190925291925060009190602082015b61222c613a4b565b81526020019060019003908161222457905050905060005b86518110156123be5761226c612258613060565b865180518490811061141b5761141b6145ed565b8360008151811061227f5761227f6145ed565b60200260200101819052506122ab612295613060565b8660200151838151811061141b5761141b6145ed565b836001815181106122be576122be6145ed565b60200260200101819052506122d96122d4613060565b6134a4565b836002815181106122ec576122ec6145ed565b6020026020010181905250858181518110612309576123096145ed565b6020908102919091010151515182518390600090612329576123296145ed565b602002602001018190525061233c6131bf565b8260018151811061234f5761234f6145ed565b602002602001018190525086818151811061236c5761236c6145ed565b602002602001015182600281518110612387576123876145ed565b602002602001018190525061239c8383613531565b6123ac5760009350505050610523565b806123b681614665565b915050612244565b5060019695505050505050565b600080845160036123dc91906148e2565b6001600160401b038111156123f3576123f3613aca565b60405190808252806020026020018201604052801561243857816020015b60408051808201909152600080825260208201528152602001906001900390816124115790505b50905060008551600361244b91906148e2565b6001600160401b0381111561246257612462613aca565b60405190808252806020026020018201604052801561249b57816020015b612488613a4b565b8152602001906001900390816124805790505b506000805460405163730163bf60e01b815292935090916001600160a01b039091169063730163bf906124d2908c90600401614529565b600060405180830381865afa1580156124ef573d6000803e3d6000fd5b505050506040513d6000823e601f3d908101601f191682016040526125179190810190614ac7565b60008054604051630d97465960e31b815292935090916001600160a01b0390911690636cba32c89061254d908d90600401614529565b600060405180830381865afa15801561256a573d6000803e3d6000fd5b505050506040513d6000823e601f3d908101601f191682016040526125929190810190614ac7565b905060005b89518110156127ea576125ab6122d4613060565b856000815181106125be576125be6145ed565b60200260200101819052508981815181106125db576125db6145ed565b6020026020010151846000815181106125f6576125f66145ed565b602002602001018190525061262261260c613060565b8860200151838151811061141b5761141b6145ed565b85600181518110612635576126356145ed565b6020026020010181905250818181518110612652576126526145ed565b60200260200101518460018151811061266d5761266d6145ed565b6020026020010181905250612697612683613060565b885180518490811061141b5761141b6145ed565b856002815181106126aa576126aa6145ed565b60200260200101819052508781815181106126c7576126c76145ed565b60209081029190910101515160016020020151846002815181106126ed576126ed6145ed565b602002602001018190525060005b89518110156127bb5761273e61270f613060565b89604001518481518110612725576127256145ed565b6020026020010151838151811061141b5761141b6145ed565b8661274a8360036148e2565b8151811061275a5761275a6145ed565b6020026020010181905250838181518110612777576127776145ed565b60200260200101518582600361278d91906148e2565b8151811061279d5761279d6145ed565b602002602001018190525080806127b390614665565b9150506126fb565b506127c68585613531565b6127d857600095505050505050610615565b806127e281614665565b915050612597565b5060019a9950505050505050505050565b6000808251602061280c9190614a63565b6128179060a06148e2565b6001600160401b0381111561282e5761282e613aca565b6040519080825280601f01601f191660200182016040528015612858576020820181803683370190505b5090506000612868611d21613060565b905060005b60208110156128c757818160208110612888576128886145ed565b1a60f81b83828151811061289e5761289e6145ed565b60200101906001600160f81b031916908160001a905350806128bf81614665565b91505061286d565b6128d2611d916131bf565b9150600090505b602081101561293d578181602081106128f4576128f46145ed565b1a60f81b836129048360206148e2565b81518110612914576129146145ed565b60200101906001600160f81b031916908160001a9053508061293581614665565b9150506128d9565b61294688611ac6565b9150600090505b60208110156129b157818160208110612968576129686145ed565b1a60f81b836129788360406148e2565b81518110612988576129886145ed565b60200101906001600160f81b031916908160001a905350806129a981614665565b91505061294d565b6129ba8761327f565b9150600090505b6020811015612a25578181602081106129dc576129dc6145ed565b1a60f81b836129ec8360606148e2565b815181106129fc576129fc6145ed565b60200101906001600160f81b031916908160001a90535080612a1d81614665565b9150506129c1565b612a2e8661327f565b9150600090505b6020811015612a9957818160208110612a5057612a506145ed565b1a60f81b83612a608360806148e2565b81518110612a7057612a706145ed565b60200101906001600160f81b031916908160001a90535080612a9181614665565b915050612a35565b50600060a0815b8651831015612b4757612abe878481518110611f7c57611f7c6145ed565b9350600090505b6020811015612b2857838160208110612ae057612ae06145ed565b1a60f81b85612aef84846148e2565b81518110612aff57612aff6145ed565b60200101906001600160f81b031916908160001a90535080612b2081614665565b915050612ac5565b612b338260206148e2565b915082612b3f81614665565b935050612aa0565b60006002866040516121789190614a25565b60008087516003612b6a91906148e2565b6001600160401b03811115612b8157612b81613aca565b604051908082528060200260200182016040528015612bc657816020015b6040805180820190915260008082526020820152815260200190600190039081612b9f5790505b509050600088516003612bd991906148e2565b6001600160401b03811115612bf057612bf0613aca565b604051908082528060200260200182016040528015612c2957816020015b612c16613a4b565b815260200190600190039081612c0e5790505b506000805460405163730163bf60e01b815292935090916001600160a01b039091169063730163bf90612c60908e90600401614529565b600060405180830381865afa158015612c7d573d6000803e3d6000fd5b505050506040513d6000823e601f3d908101601f19168201604052612ca59190810190614ac7565b60008054604051630d97465960e31b815292935090916001600160a01b0390911690636cba32c890612cdb908f90600401614529565b600060405180830381865afa158015612cf8573d6000803e3d6000fd5b505050506040513d6000823e601f3d908101601f19168201604052612d209190810190614ac7565b905060005b8751811015612ffa5760005b8751811015612e8257604080518082019091526000808252602082015260015b8b8381518110612d6357612d636145ed565b6020026020010151516001612d7891906148e2565b811015612df657612de282610fca8e8681518110612d9857612d986145ed565b6020026020010151600185612dad91906148cb565b81518110612dbd57612dbd6145ed565b602002602001015184886001612dd391906148e2565b612ddd9190614c67565b613089565b915080612dee81614665565b915050612d51565b50612e1a8e8381518110612e0c57612e0c6145ed565b6020026020010151826130e7565b878381518110612e2c57612e2c6145ed565b6020026020010181905250848281518110612e4957612e496145ed565b6020026020010151868381518110612e6357612e636145ed565b6020026020010181905250508080612e7a90614665565b915050612d31565b888281518110612e9457612e946145ed565b6020026020010151868281518110612eae57612eae6145ed565b6020026020010181905250612ec28b6134a4565b86612ece8360016148e2565b81518110612ede57612ede6145ed565b6020026020010181905250612ef46122d4613060565b86612f008360026148e2565b81518110612f1057612f106145ed565b6020026020010181905250828281518110612f2d57612f2d6145ed565b6020026020010151858281518110612f4757612f476145ed565b60200260200101819052508b8281518110612f6457612f646145ed565b60209081029190910181015151015185612f7f8360016148e2565b81518110612f8f57612f8f6145ed565b6020026020010181905250612fa388613813565b85612faf8360026148e2565b81518110612fbf57612fbf6145ed565b6020026020010181905250612fd48686613531565b612fe75760009650505050505050613004565b5080612ff281614665565b915050612d25565b5060019450505050505b979650505050505050565b60008060405160208152602080820152602060408201528460608201526002840360808201528360a082015260208160c08360056107d05a03fa9051925090508061305957600080fd5b5092915050565b604080518082018252600080825260209182015281518083019092526001825260029082015290565b60408051808201909152600080825260208201526130a5613a70565b835181526020808501519082015260408101839052600060608360808460076107d05a03fa905080806130d457fe5b50806130df57600080fd5b505092915050565b60408051808201909152600080825260208201526131036139f0565b8351815260208085015181830152835160408301528301516060808301919091526000908360c08460066107d05a03fa905080806130d457fe5b60008080600080516020614caa8339815191526003600080516020614caa83398151915286600080516020614caa8339815191528889090908905060006131b3827f0c19139cb84c680a6e14116da060561765e05aa45a1c72a34f082305b61f3f52600080516020614caa833981519152613891565b91959194509092505050565b6131c7613a4b565b50604080516080810182527f198e9393920d483a7260bfb731fb5d25f1aa493335a9e71297e485b7aef312c28183019081527f1800deef121f1e76426a00665e5c4479674322d4f75edadd46debd5cd992f6ed6060830152815281518083019092527f090689d0585ff075ec9e99ad690c3395bc4b313370b38ef355acdadcd122975b82527f12c85ea5db8c6deb4aab71808dcb408fe3d1e7690c43d37b4ce6cc0166fa7daa60208381019190915281019190915290565b60408051608080825260a082019092526000918291906020820181803683370190505083516020015190915060005b6020811015613308578181602081106132c9576132c96145ed565b1a60f81b8382815181106132df576132df6145ed565b60200101906001600160f81b031916908160001a9053508061330081614665565b9150506132ae565b505082515160005b60208110156133745781816020811061332b5761332b6145ed565b1a60f81b8361333b8360206148e2565b8151811061334b5761334b6145ed565b60200101906001600160f81b031916908160001a9053508061336c81614665565b915050613310565b5050602083810151015160005b60208110156133e55781816020811061339c5761339c6145ed565b1a60f81b836133ac8360406148e2565b815181106133bc576133bc6145ed565b60200101906001600160f81b031916908160001a905350806133dd81614665565b915050613381565b505060208301515160005b60208110156134545781816020811061340b5761340b6145ed565b1a60f81b8361341b8360606148e2565b8151811061342b5761342b6145ed565b60200101906001600160f81b031916908160001a9053508061344c81614665565b9150506133f0565b6002836040516134649190614a25565b602060405180830381855afa158015613481573d6000803e3d6000fd5b5050506040513d601f19601f82011682018060405250810190610615919061453c565b60408051808201909152600080825260208201528151600080516020614caa833981519152901580156134d957506020830151155b156134f95750506040805180820190915260008082526020820152919050565b60405180604001604052808460000151815260200182856020015161351e9190614a41565b61352890846148cb565b90529392505050565b6000815183511461354157600080fd5b82516000613550826006614a63565b90506000816001600160401b0381111561356c5761356c613aca565b604051908082528060200260200182016040528015613595578160200160208202803683370190505b50905060005b838110156137d0578681815181106135b5576135b56145ed565b602002602001015160000151828260066135cf9190614a63565b6135da9060006148e2565b815181106135ea576135ea6145ed565b602002602001018181525050868181518110613608576136086145ed565b602002602001015160200151828260066136229190614a63565b61362d9060016148e2565b8151811061363d5761363d6145ed565b60200260200101818152505085818151811061365b5761365b6145ed565b6020908102919091010151515182613674836006614a63565b61367f9060026148e2565b8151811061368f5761368f6145ed565b6020026020010181815250508581815181106136ad576136ad6145ed565b602090810291909101810151510151826136c8836006614a63565b6136d39060036148e2565b815181106136e3576136e36145ed565b602002602001018181525050858181518110613701576137016145ed565b60200260200101516020015160006002811061371f5761371f6145ed565b602002015182613730836006614a63565b61373b9060046148e2565b8151811061374b5761374b6145ed565b602002602001018181525050858181518110613769576137696145ed565b602002602001015160200151600160028110613787576137876145ed565b602002015182613798836006614a63565b6137a39060056148e2565b815181106137b3576137b36145ed565b6020908102919091010152806137c881614665565b91505061359b565b506137d9613a8e565b6000602082602086026020860160086107d05a03fa905080806137f857fe5b508061380357600080fd5b5051151593505050505b92915050565b61381b613a4b565b60408051608081018252600081830181815260608301829052825282518084019093528083526020838101829052820192909252905b83518110156130595761387d82858381518110613870576138706145ed565b60200260200101516138f7565b91508061388981614665565b915050613851565b60008061389c613a8e565b6138a4613aac565b602080825281810181905260408201819052606082018890526080820187905260a082018690528260c08360056107d05a03fa925082806138e157fe5b50826138ec57600080fd5b505195945050505050565b6138ff613a4b565b82516020808201519151818601518083015190518651808501519051888601519586015195516040805163186a4c7b60e21b81526004810199909952602489019690965260448801949094526064870192909252608486015260a485015260c484019290925260e48301919091525173__BN256G2_______________________________916361a931ec916101048083019260809291908290030181865af41580156139af573d6000803e3d6000fd5b505050506040513d601f19601f820116820180604052508101906139d39190614c73565b845160208087015192835291820192909252918152015292915050565b60405180608001604052806004906020820280368337509192915050565b60405180604001604052806002906020820280368337509192915050565b6040518061010001604052806008906020820280368337509192915050565b6040518060400160405280613a5e613a0e565b8152602001613a6b613a0e565b905290565b60405180606001604052806003906020820280368337509192915050565b60405180602001604052806001906020820280368337509192915050565b6040518060c001604052806006906020820280368337509192915050565b634e487b7160e01b600052604160045260246000fd5b604080519081016001600160401b0381118282101715613b0257613b02613aca565b60405290565b604051602081016001600160401b0381118282101715613b0257613b02613aca565b60405160a081016001600160401b0381118282101715613b0257613b02613aca565b604051601f8201601f191681016001600160401b0381118282101715613b7457613b74613aca565b604052919050565b600082601f830112613b8d57600080fd5b81356001600160401b03811115613ba657613ba6613aca565b613bb9601f8201601f1916602001613b4c565b818152846020838601011115613bce57600080fd5b816020850160208301376000918101602001919091529392505050565b60006001600160401b03821115613c0457613c04613aca565b5060051b60200190565b600060408284031215613c2057600080fd5b613c28613ae0565b9050813581526020820135602082015292915050565b600082601f830112613c4f57600080fd5b613c57613ae0565b806040840185811115613c6957600080fd5b845b81811015613c83578035845260209384019301613c6b565b509095945050505050565b600082601f830112613c9f57600080fd5b81356020613cb4613caf83613beb565b613b4c565b82815260079290921b84018101918181019086841115613cd357600080fd5b8286015b84811015611abb5760808189031215613cf05760008081fd5b613cf8613ae0565b613d028983613c0e565b8152613d118960408401613c3e565b81860152835291830191608001613cd7565b600082601f830112613d3457600080fd5b81356020613d44613caf83613beb565b82815260069290921b84018101918181019086841115613d6357600080fd5b8286015b84811015611abb57613d798882613c0e565b835291830191604001613d67565b600060808284031215613d9957600080fd5b613da1613ae0565b9050613dad8383613c3e565b8152613dbc8360408401613c3e565b602082015292915050565b600060408284031215613dd957600080fd5b613de1613ae0565b905081356001600160401b0380821115613dfa57600080fd5b613e0685838601613d23565b8352602091508184013581811115613e1d57600080fd5b84019050601f8082018613613e3157600080fd5b8135613e3f613caf82613beb565b81815260089190911b83018401908481019088831115613e5e57600080fd5b938501935b82851015613eea5761010080868b031215613e7e5760008081fd5b613e86613b08565b8a86880112613e955760008081fd5b613e9d613ae0565b91870191808c841115613eb05760008081fd5b885b84811015613ed257613ec48e82613d87565b8352918a0191608001613eb2565b50825250835250610100949094019390850190613e63565b808688015250505050505092915050565b600082601f830112613f0c57600080fd5b81356020613f1c613caf83613beb565b82815260059290921b84018101918181019086841115613f3b57600080fd5b8286015b84811015611abb5780356001600160401b03811115613f5e5760008081fd5b613f6c8986838b0101613d23565b845250918301918301613f3f565b600082601f830112613f8b57600080fd5b81356020613f9b613caf83613beb565b82815260079290921b84018101918181019086841115613fba57600080fd5b8286015b84811015611abb57613fd08882613d87565b835291830191608001613fbe565b600082601f830112613fef57600080fd5b81356020613fff613caf83613beb565b82815260059290921b8401810191818101908684111561401e57600080fd5b8286015b84811015611abb5780358352918301918301614022565b600082601f83011261404a57600080fd5b8135602061405a613caf83613beb565b82815260059290921b8401810191818101908684111561407957600080fd5b8286015b84811015611abb5780356001600160401b0381111561409c5760008081fd5b6140aa8986838b0101613fde565b84525091830191830161407d565b600082601f8301126140c957600080fd5b813560206140d9613caf83613beb565b82815260059290921b840181019181810190868411156140f857600080fd5b8286015b84811015611abb5780356001600160401b0381111561411b5760008081fd5b6141298986838b0101613b7c565b8452509183019183016140fc565b600060a0828403121561414957600080fd5b614151613b2a565b9050813581526020820135602082015260408201356001600160401b038082111561417b57600080fd5b61418785838601613fde565b604084015260608401359150808211156141a057600080fd5b6141ac85838601614039565b606084015260808401359150808211156141c557600080fd5b506141d2848285016140b8565b60808301525092915050565b6000606082840312156141f057600080fd5b604051606081016001600160401b03828210818311171561421357614213613aca565b81604052829350843591508082111561422b57600080fd5b61423786838701613fde565b8352602085013591508082111561424d57600080fd5b61425986838701613fde565b6020840152604085013591508082111561427257600080fd5b5061427f85828601614039565b6040830152505092915050565b60006040828403121561429e57600080fd5b6142a6613ae0565b905081356001600160401b03808211156142bf57600080fd5b6142cb85838601613f7a565b835260208401359150808211156142e157600080fd5b506142ee84828501613f7a565b60208301525092915050565b60008060008060008060008060008060006101808c8e03121561431c57600080fd5b6001600160401b03808d35111561433257600080fd5b61433f8e8e358f01613b7c565b9b508060208e0135111561435257600080fd5b6143628e60208f01358f01613c8e565b9a506143718e60408f01613c0e565b99508060808e0135111561438457600080fd5b6143948e60808f01358f01613dc7565b98508060a08e013511156143a757600080fd5b6143b78e60a08f01358f01613efb565b97508060c08e013511156143ca57600080fd5b6143da8e60c08f01358f01613d23565b96508060e08e013511156143ed57600080fd5b6143fd8e60e08f01358f01613f7a565b9550806101008e0135111561441157600080fd5b6144228e6101008f01358f01614137565b9450806101208e0135111561443657600080fd5b6144478e6101208f01358f016141de565b9350806101408e0135111561445b57600080fd5b61446c8e6101408f01358f0161428c565b9250806101608e0135111561448057600080fd5b506144928d6101608e01358e016140b8565b90509295989b509295989b9093969950565b6000602082840312156144b657600080fd5b81356001600160a01b038116811461052357600080fd5b60005b838110156144e85781810151838201526020016144d0565b838111156144f7576000848401525b50505050565b600081518084526145158160208601602086016144cd565b601f01601f19169290920160200192915050565b60208152600061052360208301846144fd565b60006020828403121561454e57600080fd5b5051919050565b600081518084526020808501808196508360051b8101915082860160005b8581101561459d57828403895261458b8483516144fd565b98850198935090840190600101614573565b5091979650505050505050565b8281526040602082015260006145c36040830184614555565b949350505050565b6000602082840312156145dd57600080fd5b8151801515811461052357600080fd5b634e487b7160e01b600052603260045260246000fd5b60006040828403121561461557600080fd5b61461d613ae0565b9050815181526020820151602082015292915050565b60006040828403121561464557600080fd5b6105238383614603565b634e487b7160e01b600052601160045260246000fd5b6000600182016146775761467761464f565b5060010190565b6000602080838503121561469157600080fd5b82516001600160401b038111156146a757600080fd5b8301601f810185136146b857600080fd5b80516146c6613caf82613beb565b81815260069190911b820183019083810190878311156146e557600080fd5b928401925b82841015613004576146fc8885614603565b825284820191506040840193506146ea565b634e487b7160e01b600052600160045260246000fd5b8060005b60028110156144f7578151845260209384019390910190600101614728565b600081518084526020808501945080840160005b838110156147815761476e878351614724565b604096909601959082019060010161475b565b509495945050505050565b60008151808452602080850194508084016000805b848110156147e257825188835b60088110156147cb578251825291860191908601906001016147ae565b5050506101009790970196918301916001016147a1565b50959695505050505050565b6001600160a01b0388168152610100602080830182905288519183018290526000916101208401918a81019184805b8281101561485d57845186835b60048110156148475782518252918601919086019060010161482a565b505050608095909501949383019360010161481d565b505050505061486f6040840189614724565b82810360808401526148818188614747565b905082810360a0840152614895818761478c565b905082810360c08401526148a98186614555565b905082810360e08401526148bd8185614555565b9a9950505050505050505050565b6000828210156148dd576148dd61464f565b500390565b600082198211156148f5576148f561464f565b500190565b60408152600061490d60408301856144fd565b82810360208401526106158185614555565b6000602080838503121561493257600080fd5b82516001600160401b038082111561494957600080fd5b818501915085601f83011261495d57600080fd5b815161496b613caf82613beb565b818152600591821b840185019185820191908984111561498a57600080fd5b8686015b84811015614a16578051868111156149a65760008081fd5b8701603f81018c136149b85760008081fd5b8881015160406149ca613caf83613beb565b82815291851b83018101918b8101908f8411156149e75760008081fd5b938201935b83851015614a055784518252938c0193908c01906149ec565b88525050509388019350870161498e565b50909998505050505050505050565b60008251614a378184602087016144cd565b9190910192915050565b600082614a5e57634e487b7160e01b600052601260045260246000fd5b500690565b6000816000190483118215151615614a7d57614a7d61464f565b500290565b600082601f830112614a9357600080fd5b614a9b613ae0565b806040840185811115614aad57600080fd5b845b81811015613c83578051845260209384019301614aaf565b60006020808385031215614ada57600080fd5b82516001600160401b03811115614af057600080fd5b8301601f81018513614b0157600080fd5b8051614b0f613caf82613beb565b81815260079190911b82018301908381019087831115614b2e57600080fd5b928401925b828410156130045760808489031215614b4c5760008081fd5b614b54613ae0565b614b5e8986614a82565b8152614b6d8960408701614a82565b8187015282526080939093019290840190614b33565b600181815b80851115614bbe578160001904821115614ba457614ba461464f565b80851615614bb157918102915b93841c9390800290614b88565b509250929050565b600082614bd55750600161380d565b81614be25750600061380d565b8160018114614bf85760028114614c0257614c1e565b600191505061380d565b60ff841115614c1357614c1361464f565b50506001821b61380d565b5060208310610133831016604e8410600b8410161715614c41575081810a61380d565b614c4b8383614b83565b8060001904821115614c5f57614c5f61464f565b029392505050565b60006105238383614bc6565b60008060008060808587031215614c8957600080fd5b50508251602084015160408501516060909501519196909550909250905056fe30644e72e131a029b85045b68181585d97816a916871ca8d3c208c16d87cfd4730644e72e131a029b85045b68181585d2833e84879b9709143e1f593f0000001a2646970667358221220ff8950c9bf1b9897c76430da172d06291e48f64d17455d380af7755bf86b4bec64736f6c634300080d0033",
  "immutableReferences": {},
  "source": "// SPDX-License-Identifier: GPL-3.0\npragma solidity >=0.7.0 <0.9.0;\npragma experimental ABIEncoderV2;\n\nimport { G } from \"../libraries/G.sol\";\nimport {Params} from \"./Params.sol\";\n\ncontract Request {\n    Params private params;\n    address private owner;\n    constructor(Params _params) {\n        owner = msg.sender;\n        params = _params;\n    }\n\n    modifier onlyOwner {\n        require(msg.sender == owner);\n        _;\n    }\n\n    function set_params(address addr) public onlyOwner {\n        params = Params(addr);\n    }\n    \n    struct Ciphershare {\n        G.G2Point[2] X;\n    }\n  \n    struct Compresser{\n        G.G1Point[] commitments;\n        Ciphershare[] ciphershares;\n    }\n\n    struct G2PointCompresser {\n        G.G2Point[] Dw;\n        G.G2Point[] Ew;\n    }\n\n    struct IssueProof {\n        uint256 c;\n        uint256 rr;\n        uint256[] ros;\n        uint256[][] total_rm;\n        string[] combination;\n    }\n\n    struct OpenProof {\n        uint256[] c;\n        uint256[] rr;\n        uint256[][] rs;  \n    }\n    \n    struct Vcert {\n        G.G1Point commit;\n        uint256[2] signature;\n    }\n\n    // mapping(uint256 => mapping(uint256 => mapping(uint256 => bool))) private Requested;\n\n    // function isRequested(string memory name, Vcert memory cert) private view returns(bool) {\n    //     uint256 id = params.getMapCredentials(name);\n    //     require(id != 0, \"No such AC.\");\n    //     return Requested[id][cert.commit.X][cert.commit.Y];\n    // }\n    \n    event emitRequest(uint256 indexed id, address sender, uint256[4][] vcerts, uint256[2] cm, uint256[2][] commitments, uint256[8][] ciphershares, string[] public_m, string[] combination);\n\n    function check_hr_bo(string memory name, G.G1Point[] memory commitments, Ciphershare[] memory ciphershares, G.G1Point memory h, G.G1Point[][] memory hidden_p, G.G1Point[] memory hr, G.G2Point[] memory bo) private view returns(bool) {\n        G.G1Point[] memory p_X = new G.G1Point[](commitments.length + 3);\n        G.G2Point[] memory p_Y = new G.G2Point[](commitments.length + 3);\n        G.G2Point[] memory beta =  params.get_beta(name);\n        G.G2Point[] memory opk =  params.get_opk(name);\n        for(uint256 i = 0; i< hr.length; i++) {\n            uint256 j = 0;\n            for(j=0; j< bo.length; j++) {\n                G.G1Point memory tmp = G.G1Point(0,0); //= G.g1mul(hidden_p[j][0], (i+1));\n                for(uint256 l=1; l < 1+hidden_p[j].length; l++) {\n                    tmp = G.g1add(tmp, G.g1mul(hidden_p[j][l-1], (i+1) ** l));\n                }\n                p_X[j] = G.g1add(commitments[j], tmp);\n                p_Y[j] = beta[j];\n            }\n            p_X[j] = hr[i];\n            p_X[j+1] = G.g1neg(h);\n            p_X[j+2] = G.g1neg(G.P1());\n            \n            p_Y[j] = opk[i];\n            p_Y[j+1] = ciphershares[i].X[1];\n            p_Y[j+2] = G.ec_sum(bo);\n            \n            if(!G.pairing(p_X, p_Y)) {\n                return false;\n            }\n        }\n        return true;\n    }\n\n    function check_open_proof(string memory name, OpenProof memory proof, G.G1Point memory cm, Compresser memory compressed_params,  G2PointCompresser memory compressedG2points, G.G1Point[][] memory hidden_p, G.G1Point[] memory hr, G.G2Point[] memory bo) private view returns (bool) {\n        assert(verify_Dw(compressedG2points.Dw, compressed_params.ciphershares, proof));\n        assert(verify_Ew(name, compressedG2points.Ew, compressed_params.commitments, compressed_params.ciphershares, proof));\n        G.G1Point memory h = G.HashToPoint(uint256(G.G1_to_binary256(cm)));\n        G.G1Point[] memory hs = params.get_hs(name);\n        for(uint256 i=0; i<proof.rr.length; i++) {\n            if(proof.c[i] != ToChallengeOpen(h, compressedG2points.Dw[i], compressedG2points.Ew[i], hs)) {\n                return false;\n            }\n        }\n        return (check_hr_bo(name, compressed_params.commitments, compressed_params.ciphershares, h, hidden_p, hr, bo));\n    }\n\n    function check_issue_proof(string memory name, IssueProof memory proof, G.G1Point memory cm, Compresser memory compressed_params, Vcert[] memory vcerts) private view returns (bool) {\n        G.G1Point[] memory Aw = calculate_Aw(name, proof.combination, compressed_params.commitments, cm, proof);\n        G.G1Point memory Bw = calculate_Bw(name, proof.combination, cm, proof);\n        G.G1Point[] memory Cw = calculate_Cw(proof.combination, vcerts, proof); \n        return (proof.c == ToChallengeIssue(cm, G.HashToPoint(uint256(G.G1_to_binary256(cm))), Bw, params.get_hs(name), Aw, Cw));\n    }\n\n    function check_Vcerts(string memory name, Vcert[] memory vcerts, IssueProof memory iproof) private view returns(bool) {\n        // require(isRequested(name, vcerts[0]), \"Verifiable certificate already used.\");\n        bool evaluated;\n        string[] memory combination = iproof.combination;\n        require (vcerts.length == combination.length, \"Bad combination.\");\n        uint256 id = params.getMapCredentials(name);\n        require(id != 0, \"No such AC.\");\n        require(params.checkCombination(id, combination), \"Bad combination.\");\n        for (uint256 i = 0; i < vcerts.length; i++) {//each Vcert is done ECC verification\n            evaluated = G.do_ecdsa_verify(vcerts[i].commit, params.get_ttpKeys(combination[i]), vcerts[i].signature);\n            if(!evaluated) {\n                return false;\n            }\n        }\n        require(check_sk(iproof), \"master secret key verification failed\");\n        return true;\n    }\n\n    function check_sk(IssueProof memory proof) private pure returns(bool) {\n        for (uint256 i=1; i < proof.total_rm.length-1; i++) {  // both private and public attributes proof is included.\n            if(proof.total_rm[0][0] != proof.total_rm[i][0]) {\n                return false;\n            }\n        }\n        return true;\n    }\n\n    function RequestCred(string memory name, Vcert[] memory vcerts, G.G1Point memory cm, Compresser memory compressed_params, G.G1Point[][] memory hidden_p, G.G1Point[] memory hr, G.G2Point[] memory bo, IssueProof memory iproof, OpenProof memory oproof, G2PointCompresser memory compressedG2points, string[] memory public_m) public {\n        //Below 3 checks must be made local\n        require(check_Vcerts(name, vcerts, iproof), \"Verifiable certificate verification failed\");//Vcert verification\n        require(check_issue_proof(name, iproof, cm, compressed_params, vcerts), \"issuance ZKPoK verification failed\");//Issuance verification\n        require(check_open_proof(name, oproof, cm, compressed_params, compressedG2points, hidden_p, hr, bo), \"Opening ZKPoK verification failed\");//Opening Verification\n        logging(name, msg.sender, vcerts, cm, compressed_params, public_m, iproof.combination);\n        //Need to send iproof, oproof, compressedG2points, hidden_p, hr, bo also to Validator\n        //Can do Opener verification at opener itself. Then, get true from all and then perform logging.\n        //\"hidden_p\": product of hash of commitment and m polynomials that hide private attributes\n        //\"hr\": product of hash of commitment and random number\n        //\"bo\": product of aggregated validator key and random number array \"os\"\n    }\n\n    function logging(string memory name, address sender, Vcert[] memory certs, G.G1Point memory cm, Compresser memory compressed_params, string[] memory public_m, string[] memory combination) private {\n        uint256[4][] memory vcerts = new uint256[4][](certs.length); // [cert.commit.X, cert.commit.Y, cert.signature[0], cert.signature[1]];\n        for (uint256 i=0;i<certs.length;i++) {\n            vcerts[i][0] = certs[i].commit.X;\n            vcerts[i][1] = certs[i].commit.Y;\n            vcerts[i][2] = certs[i].signature[0];\n            vcerts[i][3] = certs[i].signature[1];\n        }\n        uint256[2] memory commitment = [cm.X, cm.Y];\n        uint256[2][] memory X = new uint256[2][](compressed_params.commitments.length);\n        for (uint256 i=0;i<compressed_params.commitments.length;i++) {\n            X[i][0] = compressed_params.commitments[i].X;\n            X[i][1] = compressed_params.commitments[i].Y;\n        }\n        uint256[8][] memory Y = new uint256[8][](compressed_params.ciphershares.length);\n        for(uint256 i=0; i<compressed_params.ciphershares.length;i++){\n            Y[i][0] = compressed_params.ciphershares[i].X[0].X[0];\n            Y[i][1] = compressed_params.ciphershares[i].X[0].X[1];\n            Y[i][2] = compressed_params.ciphershares[i].X[0].Y[0];\n            Y[i][3] = compressed_params.ciphershares[i].X[0].Y[1];\n            Y[i][4] = compressed_params.ciphershares[i].X[1].X[0];\n            Y[i][5] = compressed_params.ciphershares[i].X[1].X[1];\n            Y[i][6] = compressed_params.ciphershares[i].X[1].Y[0];\n            Y[i][7] = compressed_params.ciphershares[i].X[1].Y[1];\n        }\n        uint256 id = params.getMapCredentials(name);\n        require(id != 0, \"No such AC.\");\n        // Requested[id][cert.commit.X][cert.commit.Y] = true;\n        emit emitRequest(id, sender, vcerts, commitment, X, Y, public_m, combination);\n    }\n\n    function calculate_Aw(string memory name, string[] memory combination, G.G1Point[] memory commitments, G.G1Point memory cm, IssueProof memory proof) private view returns (G.G1Point[] memory) {\n        uint256[] memory ros = proof.ros;\n        G.G1Point[] memory Aw = new G.G1Point[](ros.length);\n        uint256[][] memory total_rm = proof.total_rm;\n        uint256[] memory rm = new uint256[](proof.ros.length + total_rm[total_rm.length-1].length);\n        uint256 k = 0;\n        uint256[][] memory include_indexes = params.get_include_indexes(name, combination);\n        for (uint256 i = 0; i < total_rm.length - 1; i++) {\n            for (uint256 j = 0; j < total_rm[i].length; j++) {\n                if (include_indexes[i][j] == 1){\n                    rm[k] = total_rm[i][j];\n                    k = k+1;\n                }\n            }\n        }\n        for (uint256 i=0; i< total_rm[total_rm.length-1].length; i++) {\n            rm[k] =  total_rm[total_rm.length-1][i];\n            k = k+1;\n        } \n        G.G1Point memory h = G.HashToPoint(uint256(G.G1_to_binary256(cm)));\n        for(uint256 i=0; i < ros.length; i++) {\n            Aw[i] = G.g1add(G.g1mul(commitments[i], proof.c), G.g1add(G.g1mul(G.P1(), ros[i]), G.g1mul(h, rm[i])));\n        }\n        return Aw;\n    }\n\n    function calculate_Bw(string memory name, string[] memory combination, G.G1Point memory cm, IssueProof memory proof) private view returns (G.G1Point memory) {\n        uint256 c = proof.c;\n        uint256 rr = proof.rr;\n        uint256[][] memory total_rm = proof.total_rm;\n        uint256[] memory rm = new uint256[](proof.ros.length + total_rm[total_rm.length-1].length);\n        uint256 k = 0;\n        uint256[][] memory include_indexes = params.get_include_indexes(name, combination);\n        for (uint256 i = 0; i < total_rm.length - 1; i++) {\n            for (uint256 j = 0; j < total_rm[i].length; j++) {\n                if (include_indexes[i][j] == 1){\n                    rm[k] = total_rm[i][j];\n                    k = k+1;\n                }\n            }\n        }\n        for (uint256 i=0; i< total_rm[total_rm.length-1].length; i++) {\n            rm[k] =  total_rm[total_rm.length-1][i];\n            k = k+1;\n        }\n        G.G1Point[] memory hs = params.get_hs(name);\n        G.G1Point memory Bw = G.g1add(G.g1mul(cm, c), G.g1mul(G.P1(), rr));\n        for(uint256 i=0; i< rm.length; i++) {\n            Bw = G.g1add(Bw, G.g1mul(hs[i], rm[i]));\n        }\n        return Bw;\n    }\n\n    function verify_Dw(G.G2Point[] memory Dw, Ciphershare[] memory ciphershares, OpenProof memory proof) private view returns(bool) {\n        // Dw and rr should be same length\n        G.G1Point[] memory AA = new G.G1Point[](3);\n        G.G2Point[] memory AB = new G.G2Point[](3);\n        for(uint256 i=0; i< Dw.length; i++) {\n            AA[0] = G.g1mul(G.P1(), proof.c[i]);\n            AA[1] = G.g1mul(G.P1(), proof.rr[i]);\n            AA[2] = G.g1neg(G.P1());\n            AB[0] = ciphershares[i].X[0];\n            AB[1] = G.P2();\n            AB[2] = Dw[i];\n            if (!G.pairing(AA, AB)) {\n                return false;\n            }\n        }\n        return true;\n    }\n\n    function verify_Ew(string memory name, G.G2Point[] memory Ew, G.G1Point[] memory commitments, Ciphershare[] memory ciphershares, OpenProof memory proof) private view returns(bool) {\n        G.G1Point[] memory AA = new G.G1Point[](3 + commitments.length);\n        G.G2Point[] memory AB = new G.G2Point[](3 + commitments.length);\n        G.G2Point[] memory beta =  params.get_beta(name); // Name of AC.\n        G.G2Point[] memory opk =  params.get_opk(name);\n        for(uint256 i=0; i< Ew.length; i++) {\n            AA[0] = G.g1neg(G.P1());\n            AB[0] = Ew[i];\n            AA[1] = G.g1mul(G.P1(), proof.rr[i]);\n            AB[1] = opk[i];\n            AA[2] = G.g1mul(G.P1(), proof.c[i]);\n            AB[2] = ciphershares[i].X[1];\n            for(uint256 j=0; j < commitments.length; j++) {\n                AA[j+3] = G.g1mul(G.P1(), proof.rs[i][j]);\n                AB[j+3] = beta[j]; \n            }\n            if (!G.pairing(AA, AB)) {\n                return false;\n            }\n        }\n        return true;\n    }\n\n    function calculate_Cw(string[] memory combination, Vcert[] memory vcerts, IssueProof memory proof) private view returns(G.G1Point[] memory){\n        uint256[][] memory total_rm = proof.total_rm;\n        uint256 c = proof.c;\n        G.G1Point[] memory Cw = new G.G1Point[](total_rm.length - 1);\n        for (uint256 i = 0;  i < total_rm.length - 1; i++) {\n            G.G1Point[] memory hs = params.get_ttp_params(combination[i]);\n            G.G1Point memory tmp = G.g1mul(vcerts[i].commit, c);\n            tmp = G.g1add(tmp, G.g1mul(G.P1(), total_rm[i][total_rm[i].length-1]));\n            for (uint256 j = 0; j < total_rm[i].length - 1; j++) {\n                tmp = G.g1add(tmp, G.g1mul(hs[j], total_rm[i][j]));\n            }\n            Cw[i] = tmp;\n        }\n        return Cw;\n    }\n\n    function ToChallengeIssue(G.G1Point memory cm, G.G1Point memory h, G.G1Point memory Bw, G.G1Point[] memory hs, G.G1Point[] memory Aw, G.G1Point[] memory Cw)\n                                        internal pure returns (uint256) {\n        bytes memory Cstring = new bytes(160 + (hs.length + Aw.length + Cw.length) * 32);\n        bytes32 X = G.G1_to_binary256(G.P1());\n        for (uint256 i=0; i < 32 ; i++) {\n            Cstring[i] = X[i];\n        }\n        X = G.G2_to_binary256(G.P2());\n        for (uint256 i=0; i < 32 ; i++) {\n            Cstring[i+32] = X[i];\n        }\n        X = G.G1_to_binary256(cm);\n        for (uint256 i=0; i < 32 ; i++) {\n            Cstring[i+64] = X[i];\n        }\n        X = G.G1_to_binary256(h);\n        for (uint256 i=0; i < 32 ; i++) {\n            Cstring[i+96] = X[i];\n        }\n        X = G.G1_to_binary256(Bw);\n        for (uint256 i=0; i < 32 ; i++) {\n            Cstring[i+128] = X[i];\n        }\n        \n        uint256 location = 160;\n        for(uint256 i=0; i < hs.length; i++) {\n            X = G.G1_to_binary256(hs[i]);\n            for (uint256 j=0; j < 32 ; j++) {\n                Cstring[j+location] = X[j];\n            }\n            location = location + 32;\n        }\n        for(uint256 i=0; i< Aw.length; i++){\n            X = G.G1_to_binary256(Aw[i]);\n            for (uint256 j=0; j < 32 ; j++) {\n                Cstring[j+location] = X[j];\n            }\n            location = location + 32;\n        }\n        for(uint256 i=0; i< Cw.length; i++){\n            X = G.G1_to_binary256(Cw[i]);\n            for (uint256 j=0; j < 32 ; j++) {\n                Cstring[j+location] = X[j];\n            }\n            location = location + 32;\n        }\n\n        bytes32 Chash =  sha256(Cstring);\n        return uint256(Chash);\n    }\n\n\n    function ToChallengeOpen(G.G1Point memory h, G.G2Point memory Aw, G.G2Point memory Bw, G.G1Point[] memory hs)\n                                        internal pure returns (uint256) {\n        bytes memory Cstring = new bytes(160 + (hs.length) * 32);\n        bytes32 X = G.G1_to_binary256(G.P1());\n        uint256 i = 0;\n        for (i=0; i< 32 ; i++) {\n            Cstring[i] = X[i];\n        }\n        X = G.G2_to_binary256(G.P2());\n        for (i=0; i< 32 ; i++) {\n            Cstring[i+32] = X[i];\n        }\n        X = G.G1_to_binary256(h);\n        for (i=0; i< 32 ; i++) {\n            Cstring[i+64] = X[i];\n        }\n        X = G.G2_to_binary256(Aw);\n        for (i=0; i< 32 ; i++) {\n            Cstring[i+96] = X[i];\n        }\n        X = G.G2_to_binary256(Bw);\n        for (i=0; i< 32 ; i++) {\n            Cstring[i+128] = X[i];\n        }\n        \n        uint256 location = 160;\n        uint256 j = 0;\n        for(i=0; i < hs.length; i++) {\n            X = G.G1_to_binary256(hs[i]);\n            for (j=0; j< 32 ; j++) {\n                Cstring[j+location] = X[j];\n            }\n            location = location + 32;\n        }\n        bytes32 Chash =  sha256(Cstring);\n        return uint256(Chash);\n    }\n}",
  "sourcePath": "/home/thinh/Documents/workspace/DTRAC-ADA/py/contracts/Request.sol",
  "compiler": {
    "name": "solc",
    "version": "0.8.13+commit.abaa5c0e.Emscripten.clang"
  },
  "schemaVersion": "3.4.16",
  "updatedAt": "2025-07-11T04:14:31.900Z",
  "networkType": "ethereum",
  "devdoc": {
    "kind": "dev",
    "methods": {},
    "version": 1
  },
  "userdoc": {
    "kind": "user",
    "methods": {},
    "version": 1
  }
}